{
	"contracts/smart-contract/Webb3.sol": {
		"Webbb3": {
			"abi": [
				{
					"inputs": [],
					"stateMutability": "nonpayable",
					"type": "constructor"
				},
				{
					"inputs": [
						{
							"internalType": "uint256",
							"name": "choice",
							"type": "uint256"
						}
					],
					"name": "addVote",
					"outputs": [],
					"stateMutability": "nonpayable",
					"type": "function"
				},
				{
					"inputs": [
						{
							"internalType": "string",
							"name": "option1",
							"type": "string"
						},
						{
							"internalType": "string",
							"name": "option2",
							"type": "string"
						},
						{
							"internalType": "uint256",
							"name": "timeToVote",
							"type": "uint256"
						}
					],
					"name": "addVoting",
					"outputs": [],
					"stateMutability": "nonpayable",
					"type": "function"
				},
				{
					"inputs": [],
					"name": "currentVoting",
					"outputs": [
						{
							"internalType": "uint256",
							"name": "",
							"type": "uint256"
						}
					],
					"stateMutability": "view",
					"type": "function"
				},
				{
					"inputs": [],
					"name": "getCurrentVoting",
					"outputs": [
						{
							"components": [
								{
									"internalType": "string",
									"name": "option1",
									"type": "string"
								},
								{
									"internalType": "uint256",
									"name": "votes1",
									"type": "uint256"
								},
								{
									"internalType": "string",
									"name": "option2",
									"type": "string"
								},
								{
									"internalType": "uint256",
									"name": "votes2",
									"type": "uint256"
								},
								{
									"internalType": "uint256",
									"name": "maxDate",
									"type": "uint256"
								}
							],
							"internalType": "struct Voting",
							"name": "",
							"type": "tuple"
						}
					],
					"stateMutability": "view",
					"type": "function"
				},
				{
					"inputs": [
						{
							"internalType": "uint256",
							"name": "",
							"type": "uint256"
						},
						{
							"internalType": "address",
							"name": "",
							"type": "address"
						}
					],
					"name": "votes",
					"outputs": [
						{
							"internalType": "uint256",
							"name": "choice",
							"type": "uint256"
						},
						{
							"internalType": "uint256",
							"name": "date",
							"type": "uint256"
						}
					],
					"stateMutability": "view",
					"type": "function"
				},
				{
					"inputs": [
						{
							"internalType": "uint256",
							"name": "",
							"type": "uint256"
						}
					],
					"name": "votings",
					"outputs": [
						{
							"internalType": "string",
							"name": "option1",
							"type": "string"
						},
						{
							"internalType": "uint256",
							"name": "votes1",
							"type": "uint256"
						},
						{
							"internalType": "string",
							"name": "option2",
							"type": "string"
						},
						{
							"internalType": "uint256",
							"name": "votes2",
							"type": "uint256"
						},
						{
							"internalType": "uint256",
							"name": "maxDate",
							"type": "uint256"
						}
					],
					"stateMutability": "view",
					"type": "function"
				}
			],
			"devdoc": {
				"kind": "dev",
				"methods": {},
				"version": 1
			},
			"evm": {
				"assembly": "    /* \"contracts/smart-contract/Webb3.sol\":260:1641  contract Webbb3 {... */\n  mstore(0x40, 0x80)\n    /* \"contracts/smart-contract/Webb3.sol\":334:335  0 */\n  0x00\n    /* \"contracts/smart-contract/Webb3.sol\":303:335  uint256 public currentVoting = 0 */\n  0x01\n  sstore\n    /* \"contracts/smart-contract/Webb3.sol\":438:489  constructor() {... */\n  callvalue\n  dup1\n  iszero\n  tag_1\n  jumpi\n  revert(0x00, 0x00)\ntag_1:\n  pop\n    /* \"contracts/smart-contract/Webb3.sol\":471:481  msg.sender */\n  caller\n    /* \"contracts/smart-contract/Webb3.sol\":463:468  owner */\n  0x00\n  0x00\n    /* \"contracts/smart-contract/Webb3.sol\":463:481  owner = msg.sender */\n  0x0100\n  exp\n  dup2\n  sload\n  dup2\n  0xffffffffffffffffffffffffffffffffffffffff\n  mul\n  not\n  and\n  swap1\n  dup4\n  0xffffffffffffffffffffffffffffffffffffffff\n  and\n  mul\n  or\n  swap1\n  sstore\n  pop\n    /* \"contracts/smart-contract/Webb3.sol\":260:1641  contract Webbb3 {... */\n  dataSize(sub_0)\n  dup1\n  dataOffset(sub_0)\n  0x00\n  codecopy\n  0x00\n  return\nstop\n\nsub_0: assembly {\n        /* \"contracts/smart-contract/Webb3.sol\":260:1641  contract Webbb3 {... */\n      mstore(0x40, 0x80)\n      callvalue\n      dup1\n      iszero\n      tag_1\n      jumpi\n      revert(0x00, 0x00)\n    tag_1:\n      pop\n      jumpi(tag_2, lt(calldatasize, 0x04))\n      shr(0xe0, calldataload(0x00))\n      dup1\n      0x0383badc\n      eq\n      tag_3\n      jumpi\n      dup1\n      0x1c7bec9d\n      eq\n      tag_4\n      jumpi\n      dup1\n      0x55f9b1ec\n      eq\n      tag_5\n      jumpi\n      dup1\n      0xa598d03c\n      eq\n      tag_6\n      jumpi\n      dup1\n      0xd23254b4\n      eq\n      tag_7\n      jumpi\n      dup1\n      0xf1156cdf\n      eq\n      tag_8\n      jumpi\n    tag_2:\n      revert(0x00, 0x00)\n        /* \"contracts/smart-contract/Webb3.sol\":1074:1638  function addVote(uint256 choice) public {... */\n    tag_3:\n      tag_9\n      0x04\n      dup1\n      calldatasize\n      sub\n      dup2\n      add\n      swap1\n      tag_10\n      swap2\n      swap1\n      tag_11\n      jump\t// in\n    tag_10:\n      tag_12\n      jump\t// in\n    tag_9:\n      stop\n        /* \"contracts/smart-contract/Webb3.sol\":303:335  uint256 public currentVoting = 0 */\n    tag_4:\n      tag_13\n      tag_14\n      jump\t// in\n    tag_13:\n      mload(0x40)\n      tag_15\n      swap2\n      swap1\n      tag_16\n      jump\t// in\n    tag_15:\n      mload(0x40)\n      dup1\n      swap2\n      sub\n      swap1\n      return\n        /* \"contracts/smart-contract/Webb3.sol\":617:1066  function addVoting(... */\n    tag_5:\n      tag_17\n      0x04\n      dup1\n      calldatasize\n      sub\n      dup2\n      add\n      swap1\n      tag_18\n      swap2\n      swap1\n      tag_19\n      jump\t// in\n    tag_18:\n      tag_20\n      jump\t// in\n    tag_17:\n      stop\n        /* \"contracts/smart-contract/Webb3.sol\":342:365  Voting[] public votings */\n    tag_6:\n      tag_21\n      0x04\n      dup1\n      calldatasize\n      sub\n      dup2\n      add\n      swap1\n      tag_22\n      swap2\n      swap1\n      tag_11\n      jump\t// in\n    tag_22:\n      tag_23\n      jump\t// in\n    tag_21:\n      mload(0x40)\n      tag_24\n      swap6\n      swap5\n      swap4\n      swap3\n      swap2\n      swap1\n      tag_25\n      jump\t// in\n    tag_24:\n      mload(0x40)\n      dup1\n      swap2\n      sub\n      swap1\n      return\n        /* \"contracts/smart-contract/Webb3.sol\":372:429  mapping(uint256 => mapping(address => Vote)) public votes */\n    tag_7:\n      tag_26\n      0x04\n      dup1\n      calldatasize\n      sub\n      dup2\n      add\n      swap1\n      tag_27\n      swap2\n      swap1\n      tag_28\n      jump\t// in\n    tag_27:\n      tag_29\n      jump\t// in\n    tag_26:\n      mload(0x40)\n      tag_30\n      swap3\n      swap2\n      swap1\n      tag_31\n      jump\t// in\n    tag_30:\n      mload(0x40)\n      dup1\n      swap2\n      sub\n      swap1\n      return\n        /* \"contracts/smart-contract/Webb3.sol\":497:609  function getCurrentVoting() public view returns (Voting memory) {... */\n    tag_8:\n      tag_32\n      tag_33\n      jump\t// in\n    tag_32:\n      mload(0x40)\n      tag_34\n      swap2\n      swap1\n      tag_35\n      jump\t// in\n    tag_34:\n      mload(0x40)\n      dup1\n      swap2\n      sub\n      swap1\n      return\n        /* \"contracts/smart-contract/Webb3.sol\":1074:1638  function addVote(uint256 choice) public {... */\n    tag_12:\n        /* \"contracts/smart-contract/Webb3.sol\":1143:1144  1 */\n      0x01\n        /* \"contracts/smart-contract/Webb3.sol\":1133:1139  choice */\n      dup2\n        /* \"contracts/smart-contract/Webb3.sol\":1133:1144  choice == 1 */\n      eq\n        /* \"contracts/smart-contract/Webb3.sol\":1133:1159  choice == 1 || choice == 2 */\n      dup1\n      tag_37\n      jumpi\n      pop\n        /* \"contracts/smart-contract/Webb3.sol\":1158:1159  2 */\n      0x02\n        /* \"contracts/smart-contract/Webb3.sol\":1148:1154  choice */\n      dup2\n        /* \"contracts/smart-contract/Webb3.sol\":1148:1159  choice == 2 */\n      eq\n        /* \"contracts/smart-contract/Webb3.sol\":1133:1159  choice == 1 || choice == 2 */\n    tag_37:\n        /* \"contracts/smart-contract/Webb3.sol\":1125:1178  require(choice == 1 || choice == 2, \"Invalid choice\") */\n      tag_38\n      jumpi\n      mload(0x40)\n      0x08c379a000000000000000000000000000000000000000000000000000000000\n      dup2\n      mstore\n      0x04\n      add\n      tag_39\n      swap1\n      tag_40\n      jump\t// in\n    tag_39:\n      mload(0x40)\n      dup1\n      swap2\n      sub\n      swap1\n      revert\n    tag_38:\n        /* \"contracts/smart-contract/Webb3.sol\":1226:1241  block.timestamp */\n      timestamp\n        /* \"contracts/smart-contract/Webb3.sol\":1197:1215  getCurrentVoting() */\n      tag_41\n        /* \"contracts/smart-contract/Webb3.sol\":1197:1213  getCurrentVoting */\n      tag_33\n        /* \"contracts/smart-contract/Webb3.sol\":1197:1215  getCurrentVoting() */\n      jump\t// in\n    tag_41:\n        /* \"contracts/smart-contract/Webb3.sol\":1197:1223  getCurrentVoting().maxDate */\n      0x80\n      add\n      mload\n        /* \"contracts/smart-contract/Webb3.sol\":1197:1241  getCurrentVoting().maxDate > block.timestamp */\n      gt\n        /* \"contracts/smart-contract/Webb3.sol\":1189:1260  require(getCurrentVoting().maxDate > block.timestamp, \"No open voting\") */\n      tag_42\n      jumpi\n      mload(0x40)\n      0x08c379a000000000000000000000000000000000000000000000000000000000\n      dup2\n      mstore\n      0x04\n      add\n      tag_43\n      swap1\n      tag_44\n      jump\t// in\n    tag_43:\n      mload(0x40)\n      dup1\n      swap2\n      sub\n      swap1\n      revert\n    tag_42:\n        /* \"contracts/smart-contract/Webb3.sol\":1334:1335  0 */\n      0x00\n        /* \"contracts/smart-contract/Webb3.sol\":1293:1298  votes */\n      0x03\n        /* \"contracts/smart-contract/Webb3.sol\":1293:1313  votes[currentVoting] */\n      0x00\n        /* \"contracts/smart-contract/Webb3.sol\":1299:1312  currentVoting */\n      sload(0x01)\n        /* \"contracts/smart-contract/Webb3.sol\":1293:1313  votes[currentVoting] */\n      dup2\n      mstore\n      0x20\n      add\n      swap1\n      dup2\n      mstore\n      0x20\n      add\n      0x00\n      keccak256\n        /* \"contracts/smart-contract/Webb3.sol\":1293:1325  votes[currentVoting][msg.sender] */\n      0x00\n        /* \"contracts/smart-contract/Webb3.sol\":1314:1324  msg.sender */\n      caller\n        /* \"contracts/smart-contract/Webb3.sol\":1293:1325  votes[currentVoting][msg.sender] */\n      0xffffffffffffffffffffffffffffffffffffffff\n      and\n      0xffffffffffffffffffffffffffffffffffffffff\n      and\n      dup2\n      mstore\n      0x20\n      add\n      swap1\n      dup2\n      mstore\n      0x20\n      add\n      0x00\n      keccak256\n        /* \"contracts/smart-contract/Webb3.sol\":1293:1330  votes[currentVoting][msg.sender].date */\n      0x01\n      add\n      sload\n        /* \"contracts/smart-contract/Webb3.sol\":1293:1335  votes[currentVoting][msg.sender].date == 0 */\n      eq\n        /* \"contracts/smart-contract/Webb3.sol\":1271:1395  require(... */\n      tag_45\n      jumpi\n      mload(0x40)\n      0x08c379a000000000000000000000000000000000000000000000000000000000\n      dup2\n      mstore\n      0x04\n      add\n      tag_46\n      swap1\n      tag_47\n      jump\t// in\n    tag_46:\n      mload(0x40)\n      dup1\n      swap2\n      sub\n      swap1\n      revert\n    tag_45:\n        /* \"contracts/smart-contract/Webb3.sol\":1450:1456  choice */\n      dup1\n        /* \"contracts/smart-contract/Webb3.sol\":1408:1413  votes */\n      0x03\n        /* \"contracts/smart-contract/Webb3.sol\":1408:1428  votes[currentVoting] */\n      0x00\n        /* \"contracts/smart-contract/Webb3.sol\":1414:1427  currentVoting */\n      sload(0x01)\n        /* \"contracts/smart-contract/Webb3.sol\":1408:1428  votes[currentVoting] */\n      dup2\n      mstore\n      0x20\n      add\n      swap1\n      dup2\n      mstore\n      0x20\n      add\n      0x00\n      keccak256\n        /* \"contracts/smart-contract/Webb3.sol\":1408:1440  votes[currentVoting][msg.sender] */\n      0x00\n        /* \"contracts/smart-contract/Webb3.sol\":1429:1439  msg.sender */\n      caller\n        /* \"contracts/smart-contract/Webb3.sol\":1408:1440  votes[currentVoting][msg.sender] */\n      0xffffffffffffffffffffffffffffffffffffffff\n      and\n      0xffffffffffffffffffffffffffffffffffffffff\n      and\n      dup2\n      mstore\n      0x20\n      add\n      swap1\n      dup2\n      mstore\n      0x20\n      add\n      0x00\n      keccak256\n        /* \"contracts/smart-contract/Webb3.sol\":1408:1447  votes[currentVoting][msg.sender].choice */\n      0x00\n      add\n        /* \"contracts/smart-contract/Webb3.sol\":1408:1456  votes[currentVoting][msg.sender].choice = choice */\n      dup2\n      swap1\n      sstore\n      pop\n        /* \"contracts/smart-contract/Webb3.sol\":1507:1522  block.timestamp */\n      timestamp\n        /* \"contracts/smart-contract/Webb3.sol\":1467:1472  votes */\n      0x03\n        /* \"contracts/smart-contract/Webb3.sol\":1467:1487  votes[currentVoting] */\n      0x00\n        /* \"contracts/smart-contract/Webb3.sol\":1473:1486  currentVoting */\n      sload(0x01)\n        /* \"contracts/smart-contract/Webb3.sol\":1467:1487  votes[currentVoting] */\n      dup2\n      mstore\n      0x20\n      add\n      swap1\n      dup2\n      mstore\n      0x20\n      add\n      0x00\n      keccak256\n        /* \"contracts/smart-contract/Webb3.sol\":1467:1499  votes[currentVoting][msg.sender] */\n      0x00\n        /* \"contracts/smart-contract/Webb3.sol\":1488:1498  msg.sender */\n      caller\n        /* \"contracts/smart-contract/Webb3.sol\":1467:1499  votes[currentVoting][msg.sender] */\n      0xffffffffffffffffffffffffffffffffffffffff\n      and\n      0xffffffffffffffffffffffffffffffffffffffff\n      and\n      dup2\n      mstore\n      0x20\n      add\n      swap1\n      dup2\n      mstore\n      0x20\n      add\n      0x00\n      keccak256\n        /* \"contracts/smart-contract/Webb3.sol\":1467:1504  votes[currentVoting][msg.sender].date */\n      0x01\n      add\n        /* \"contracts/smart-contract/Webb3.sol\":1467:1522  votes[currentVoting][msg.sender].date = block.timestamp */\n      dup2\n      swap1\n      sstore\n      pop\n        /* \"contracts/smart-contract/Webb3.sol\":1549:1550  1 */\n      0x01\n        /* \"contracts/smart-contract/Webb3.sol\":1539:1545  choice */\n      dup2\n        /* \"contracts/smart-contract/Webb3.sol\":1539:1550  choice == 1 */\n      sub\n        /* \"contracts/smart-contract/Webb3.sol\":1535:1630  if (choice == 1) votings[currentVoting].votes1++;... */\n      tag_48\n      jumpi\n        /* \"contracts/smart-contract/Webb3.sol\":1552:1559  votings */\n      0x02\n        /* \"contracts/smart-contract/Webb3.sol\":1560:1573  currentVoting */\n      sload(0x01)\n        /* \"contracts/smart-contract/Webb3.sol\":1552:1574  votings[currentVoting] */\n      dup2\n      sload\n      dup2\n      lt\n      tag_49\n      jumpi\n      tag_50\n      tag_51\n      jump\t// in\n    tag_50:\n    tag_49:\n      swap1\n      0x00\n      mstore\n      keccak256(0x00, 0x20)\n      swap1\n      0x05\n      mul\n      add\n        /* \"contracts/smart-contract/Webb3.sol\":1552:1581  votings[currentVoting].votes1 */\n      0x01\n      add\n      0x00\n        /* \"contracts/smart-contract/Webb3.sol\":1552:1583  votings[currentVoting].votes1++ */\n      dup2\n      sload\n      dup1\n      swap3\n      swap2\n      swap1\n      tag_53\n      swap1\n      tag_54\n      jump\t// in\n    tag_53:\n      swap2\n      swap1\n      pop\n      sstore\n      pop\n        /* \"contracts/smart-contract/Webb3.sol\":1535:1630  if (choice == 1) votings[currentVoting].votes1++;... */\n      jump(tag_55)\n    tag_48:\n        /* \"contracts/smart-contract/Webb3.sol\":1599:1606  votings */\n      0x02\n        /* \"contracts/smart-contract/Webb3.sol\":1607:1620  currentVoting */\n      sload(0x01)\n        /* \"contracts/smart-contract/Webb3.sol\":1599:1621  votings[currentVoting] */\n      dup2\n      sload\n      dup2\n      lt\n      tag_56\n      jumpi\n      tag_57\n      tag_51\n      jump\t// in\n    tag_57:\n    tag_56:\n      swap1\n      0x00\n      mstore\n      keccak256(0x00, 0x20)\n      swap1\n      0x05\n      mul\n      add\n        /* \"contracts/smart-contract/Webb3.sol\":1599:1628  votings[currentVoting].votes2 */\n      0x03\n      add\n      0x00\n        /* \"contracts/smart-contract/Webb3.sol\":1599:1630  votings[currentVoting].votes2++ */\n      dup2\n      sload\n      dup1\n      swap3\n      swap2\n      swap1\n      tag_59\n      swap1\n      tag_54\n      jump\t// in\n    tag_59:\n      swap2\n      swap1\n      pop\n      sstore\n      pop\n        /* \"contracts/smart-contract/Webb3.sol\":1535:1630  if (choice == 1) votings[currentVoting].votes1++;... */\n    tag_55:\n        /* \"contracts/smart-contract/Webb3.sol\":1074:1638  function addVote(uint256 choice) public {... */\n      pop\n      jump\t// out\n        /* \"contracts/smart-contract/Webb3.sol\":303:335  uint256 public currentVoting = 0 */\n    tag_14:\n      sload(0x01)\n      dup2\n      jump\t// out\n        /* \"contracts/smart-contract/Webb3.sol\":617:1066  function addVoting(... */\n    tag_20:\n        /* \"contracts/smart-contract/Webb3.sol\":776:781  owner */\n      0x00\n      0x00\n      swap1\n      sload\n      swap1\n      0x0100\n      exp\n      swap1\n      div\n      0xffffffffffffffffffffffffffffffffffffffff\n      and\n        /* \"contracts/smart-contract/Webb3.sol\":762:781  msg.sender == owner */\n      0xffffffffffffffffffffffffffffffffffffffff\n      and\n        /* \"contracts/smart-contract/Webb3.sol\":762:772  msg.sender */\n      caller\n        /* \"contracts/smart-contract/Webb3.sol\":762:781  msg.sender == owner */\n      0xffffffffffffffffffffffffffffffffffffffff\n      and\n      eq\n        /* \"contracts/smart-contract/Webb3.sol\":754:800  require(msg.sender == owner, \"Invalid sender\") */\n      tag_61\n      jumpi\n      mload(0x40)\n      0x08c379a000000000000000000000000000000000000000000000000000000000\n      dup2\n      mstore\n      0x04\n      add\n      tag_62\n      swap1\n      tag_63\n      jump\t// in\n    tag_62:\n      mload(0x40)\n      dup1\n      swap2\n      sub\n      swap1\n      revert\n    tag_61:\n        /* \"contracts/smart-contract/Webb3.sol\":835:836  0 */\n      0x00\n        /* \"contracts/smart-contract/Webb3.sol\":817:824  votings */\n      0x02\n        /* \"contracts/smart-contract/Webb3.sol\":817:831  votings.length */\n      dup1\n      sload\n      swap1\n      pop\n        /* \"contracts/smart-contract/Webb3.sol\":817:836  votings.length != 0 */\n      eq\n        /* \"contracts/smart-contract/Webb3.sol\":813:853  if (votings.length != 0) currentVoting++ */\n      tag_64\n      jumpi\n        /* \"contracts/smart-contract/Webb3.sol\":838:851  currentVoting */\n      0x01\n      0x00\n        /* \"contracts/smart-contract/Webb3.sol\":838:853  currentVoting++ */\n      dup2\n      sload\n      dup1\n      swap3\n      swap2\n      swap1\n      tag_65\n      swap1\n      tag_54\n      jump\t// in\n    tag_65:\n      swap2\n      swap1\n      pop\n      sstore\n      pop\n        /* \"contracts/smart-contract/Webb3.sol\":813:853  if (votings.length != 0) currentVoting++ */\n    tag_64:\n        /* \"contracts/smart-contract/Webb3.sol\":866:889  Voting memory newVoting */\n      tag_66\n      tag_67\n      jump\t// in\n    tag_66:\n        /* \"contracts/smart-contract/Webb3.sol\":920:927  option1 */\n      dup4\n        /* \"contracts/smart-contract/Webb3.sol\":900:909  newVoting */\n      dup2\n        /* \"contracts/smart-contract/Webb3.sol\":900:917  newVoting.option1 */\n      0x00\n      add\n        /* \"contracts/smart-contract/Webb3.sol\":900:927  newVoting.option1 = option1 */\n      dup2\n      swap1\n      mstore\n      pop\n        /* \"contracts/smart-contract/Webb3.sol\":958:965  option2 */\n      dup3\n        /* \"contracts/smart-contract/Webb3.sol\":938:947  newVoting */\n      dup2\n        /* \"contracts/smart-contract/Webb3.sol\":938:955  newVoting.option2 */\n      0x40\n      add\n        /* \"contracts/smart-contract/Webb3.sol\":938:965  newVoting.option2 = option2 */\n      dup2\n      swap1\n      mstore\n      pop\n        /* \"contracts/smart-contract/Webb3.sol\":1009:1024  block.timestamp */\n      timestamp\n        /* \"contracts/smart-contract/Webb3.sol\":996:1006  timeToVote */\n      dup3\n        /* \"contracts/smart-contract/Webb3.sol\":996:1024  timeToVote + block.timestamp */\n      tag_68\n      swap2\n      swap1\n      tag_69\n      jump\t// in\n    tag_68:\n        /* \"contracts/smart-contract/Webb3.sol\":976:985  newVoting */\n      dup2\n        /* \"contracts/smart-contract/Webb3.sol\":976:993  newVoting.maxDate */\n      0x80\n      add\n        /* \"contracts/smart-contract/Webb3.sol\":976:1024  newVoting.maxDate = timeToVote + block.timestamp */\n      dup2\n      dup2\n      mstore\n      pop\n      pop\n        /* \"contracts/smart-contract/Webb3.sol\":1035:1042  votings */\n      0x02\n        /* \"contracts/smart-contract/Webb3.sol\":1048:1057  newVoting */\n      dup2\n        /* \"contracts/smart-contract/Webb3.sol\":1035:1058  votings.push(newVoting) */\n      swap1\n      dup1\n      0x01\n      dup2\n      sload\n      add\n      dup1\n      dup3\n      sstore\n      dup1\n      swap2\n      pop\n      pop\n      0x01\n      swap1\n      sub\n      swap1\n      0x00\n      mstore\n      keccak256(0x00, 0x20)\n      swap1\n      0x05\n      mul\n      add\n      0x00\n      swap1\n      swap2\n      swap1\n      swap2\n      swap1\n      swap2\n      pop\n      0x00\n      dup3\n      add\n      mload\n      dup2\n      0x00\n      add\n      swap1\n      dup2\n      tag_71\n      swap2\n      swap1\n      tag_72\n      jump\t// in\n    tag_71:\n      pop\n      0x20\n      dup3\n      add\n      mload\n      dup2\n      0x01\n      add\n      sstore\n      0x40\n      dup3\n      add\n      mload\n      dup2\n      0x02\n      add\n      swap1\n      dup2\n      tag_73\n      swap2\n      swap1\n      tag_72\n      jump\t// in\n    tag_73:\n      pop\n      0x60\n      dup3\n      add\n      mload\n      dup2\n      0x03\n      add\n      sstore\n      0x80\n      dup3\n      add\n      mload\n      dup2\n      0x04\n      add\n      sstore\n      pop\n      pop\n        /* \"contracts/smart-contract/Webb3.sol\":743:1066  {... */\n      pop\n        /* \"contracts/smart-contract/Webb3.sol\":617:1066  function addVoting(... */\n      pop\n      pop\n      pop\n      jump\t// out\n        /* \"contracts/smart-contract/Webb3.sol\":342:365  Voting[] public votings */\n    tag_23:\n      0x02\n      dup2\n      dup2\n      sload\n      dup2\n      lt\n      tag_74\n      jumpi\n      0x00\n      dup1\n      revert\n    tag_74:\n      swap1\n      0x00\n      mstore\n      keccak256(0x00, 0x20)\n      swap1\n      0x05\n      mul\n      add\n      0x00\n      swap2\n      pop\n      swap1\n      pop\n      dup1\n      0x00\n      add\n      dup1\n      sload\n      tag_76\n      swap1\n      tag_77\n      jump\t// in\n    tag_76:\n      dup1\n      0x1f\n      add\n      0x20\n      dup1\n      swap2\n      div\n      mul\n      0x20\n      add\n      mload(0x40)\n      swap1\n      dup2\n      add\n      0x40\n      mstore\n      dup1\n      swap3\n      swap2\n      swap1\n      dup2\n      dup2\n      mstore\n      0x20\n      add\n      dup3\n      dup1\n      sload\n      tag_78\n      swap1\n      tag_77\n      jump\t// in\n    tag_78:\n      dup1\n      iszero\n      tag_79\n      jumpi\n      dup1\n      0x1f\n      lt\n      tag_80\n      jumpi\n      0x0100\n      dup1\n      dup4\n      sload\n      div\n      mul\n      dup4\n      mstore\n      swap2\n      0x20\n      add\n      swap2\n      jump(tag_79)\n    tag_80:\n      dup3\n      add\n      swap2\n      swap1\n      0x00\n      mstore\n      keccak256(0x00, 0x20)\n      swap1\n    tag_81:\n      dup2\n      sload\n      dup2\n      mstore\n      swap1\n      0x01\n      add\n      swap1\n      0x20\n      add\n      dup1\n      dup4\n      gt\n      tag_81\n      jumpi\n      dup3\n      swap1\n      sub\n      0x1f\n      and\n      dup3\n      add\n      swap2\n    tag_79:\n      pop\n      pop\n      pop\n      pop\n      pop\n      swap1\n      dup1\n      0x01\n      add\n      sload\n      swap1\n      dup1\n      0x02\n      add\n      dup1\n      sload\n      tag_82\n      swap1\n      tag_77\n      jump\t// in\n    tag_82:\n      dup1\n      0x1f\n      add\n      0x20\n      dup1\n      swap2\n      div\n      mul\n      0x20\n      add\n      mload(0x40)\n      swap1\n      dup2\n      add\n      0x40\n      mstore\n      dup1\n      swap3\n      swap2\n      swap1\n      dup2\n      dup2\n      mstore\n      0x20\n      add\n      dup3\n      dup1\n      sload\n      tag_83\n      swap1\n      tag_77\n      jump\t// in\n    tag_83:\n      dup1\n      iszero\n      tag_84\n      jumpi\n      dup1\n      0x1f\n      lt\n      tag_85\n      jumpi\n      0x0100\n      dup1\n      dup4\n      sload\n      div\n      mul\n      dup4\n      mstore\n      swap2\n      0x20\n      add\n      swap2\n      jump(tag_84)\n    tag_85:\n      dup3\n      add\n      swap2\n      swap1\n      0x00\n      mstore\n      keccak256(0x00, 0x20)\n      swap1\n    tag_86:\n      dup2\n      sload\n      dup2\n      mstore\n      swap1\n      0x01\n      add\n      swap1\n      0x20\n      add\n      dup1\n      dup4\n      gt\n      tag_86\n      jumpi\n      dup3\n      swap1\n      sub\n      0x1f\n      and\n      dup3\n      add\n      swap2\n    tag_84:\n      pop\n      pop\n      pop\n      pop\n      pop\n      swap1\n      dup1\n      0x03\n      add\n      sload\n      swap1\n      dup1\n      0x04\n      add\n      sload\n      swap1\n      pop\n      dup6\n      jump\t// out\n        /* \"contracts/smart-contract/Webb3.sol\":372:429  mapping(uint256 => mapping(address => Vote)) public votes */\n    tag_29:\n      mstore(0x20, 0x03)\n      dup2\n      0x00\n      mstore\n      mstore(0x20, keccak256(0x00, 0x40))\n      dup1\n      0x00\n      mstore\n      keccak256(0x00, 0x40)\n      0x00\n      swap2\n      pop\n      swap2\n      pop\n      pop\n      dup1\n      0x00\n      add\n      sload\n      swap1\n      dup1\n      0x01\n      add\n      sload\n      swap1\n      pop\n      dup3\n      jump\t// out\n        /* \"contracts/smart-contract/Webb3.sol\":497:609  function getCurrentVoting() public view returns (Voting memory) {... */\n    tag_33:\n        /* \"contracts/smart-contract/Webb3.sol\":546:559  Voting memory */\n      tag_87\n      tag_67\n      jump\t// in\n    tag_87:\n        /* \"contracts/smart-contract/Webb3.sol\":579:586  votings */\n      0x02\n        /* \"contracts/smart-contract/Webb3.sol\":587:600  currentVoting */\n      sload(0x01)\n        /* \"contracts/smart-contract/Webb3.sol\":579:601  votings[currentVoting] */\n      dup2\n      sload\n      dup2\n      lt\n      tag_89\n      jumpi\n      tag_90\n      tag_51\n      jump\t// in\n    tag_90:\n    tag_89:\n      swap1\n      0x00\n      mstore\n      keccak256(0x00, 0x20)\n      swap1\n      0x05\n      mul\n      add\n        /* \"contracts/smart-contract/Webb3.sol\":572:601  return votings[currentVoting] */\n      mload(0x40)\n      dup1\n      0xa0\n      add\n      0x40\n      mstore\n      swap1\n      dup2\n      0x00\n      dup3\n      add\n      dup1\n      sload\n      tag_92\n      swap1\n      tag_77\n      jump\t// in\n    tag_92:\n      dup1\n      0x1f\n      add\n      0x20\n      dup1\n      swap2\n      div\n      mul\n      0x20\n      add\n      mload(0x40)\n      swap1\n      dup2\n      add\n      0x40\n      mstore\n      dup1\n      swap3\n      swap2\n      swap1\n      dup2\n      dup2\n      mstore\n      0x20\n      add\n      dup3\n      dup1\n      sload\n      tag_93\n      swap1\n      tag_77\n      jump\t// in\n    tag_93:\n      dup1\n      iszero\n      tag_94\n      jumpi\n      dup1\n      0x1f\n      lt\n      tag_95\n      jumpi\n      0x0100\n      dup1\n      dup4\n      sload\n      div\n      mul\n      dup4\n      mstore\n      swap2\n      0x20\n      add\n      swap2\n      jump(tag_94)\n    tag_95:\n      dup3\n      add\n      swap2\n      swap1\n      0x00\n      mstore\n      keccak256(0x00, 0x20)\n      swap1\n    tag_96:\n      dup2\n      sload\n      dup2\n      mstore\n      swap1\n      0x01\n      add\n      swap1\n      0x20\n      add\n      dup1\n      dup4\n      gt\n      tag_96\n      jumpi\n      dup3\n      swap1\n      sub\n      0x1f\n      and\n      dup3\n      add\n      swap2\n    tag_94:\n      pop\n      pop\n      pop\n      pop\n      pop\n      dup2\n      mstore\n      0x20\n      add\n      0x01\n      dup3\n      add\n      sload\n      dup2\n      mstore\n      0x20\n      add\n      0x02\n      dup3\n      add\n      dup1\n      sload\n      tag_97\n      swap1\n      tag_77\n      jump\t// in\n    tag_97:\n      dup1\n      0x1f\n      add\n      0x20\n      dup1\n      swap2\n      div\n      mul\n      0x20\n      add\n      mload(0x40)\n      swap1\n      dup2\n      add\n      0x40\n      mstore\n      dup1\n      swap3\n      swap2\n      swap1\n      dup2\n      dup2\n      mstore\n      0x20\n      add\n      dup3\n      dup1\n      sload\n      tag_98\n      swap1\n      tag_77\n      jump\t// in\n    tag_98:\n      dup1\n      iszero\n      tag_99\n      jumpi\n      dup1\n      0x1f\n      lt\n      tag_100\n      jumpi\n      0x0100\n      dup1\n      dup4\n      sload\n      div\n      mul\n      dup4\n      mstore\n      swap2\n      0x20\n      add\n      swap2\n      jump(tag_99)\n    tag_100:\n      dup3\n      add\n      swap2\n      swap1\n      0x00\n      mstore\n      keccak256(0x00, 0x20)\n      swap1\n    tag_101:\n      dup2\n      sload\n      dup2\n      mstore\n      swap1\n      0x01\n      add\n      swap1\n      0x20\n      add\n      dup1\n      dup4\n      gt\n      tag_101\n      jumpi\n      dup3\n      swap1\n      sub\n      0x1f\n      and\n      dup3\n      add\n      swap2\n    tag_99:\n      pop\n      pop\n      pop\n      pop\n      pop\n      dup2\n      mstore\n      0x20\n      add\n      0x03\n      dup3\n      add\n      sload\n      dup2\n      mstore\n      0x20\n      add\n      0x04\n      dup3\n      add\n      sload\n      dup2\n      mstore\n      pop\n      pop\n      swap1\n      pop\n        /* \"contracts/smart-contract/Webb3.sol\":497:609  function getCurrentVoting() public view returns (Voting memory) {... */\n      swap1\n      jump\t// out\n    tag_67:\n      mload(0x40)\n      dup1\n      0xa0\n      add\n      0x40\n      mstore\n      dup1\n      0x60\n      dup2\n      mstore\n      0x20\n      add\n      0x00\n      dup2\n      mstore\n      0x20\n      add\n      0x60\n      dup2\n      mstore\n      0x20\n      add\n      0x00\n      dup2\n      mstore\n      0x20\n      add\n      0x00\n      dup2\n      mstore\n      pop\n      swap1\n      jump\t// out\n        /* \"#utility.yul\":7:82   */\n    tag_102:\n        /* \"#utility.yul\":40:46   */\n      0x00\n        /* \"#utility.yul\":73:75   */\n      0x40\n        /* \"#utility.yul\":67:76   */\n      mload\n        /* \"#utility.yul\":57:76   */\n      swap1\n      pop\n        /* \"#utility.yul\":7:82   */\n      swap1\n      jump\t// out\n        /* \"#utility.yul\":88:205   */\n    tag_103:\n        /* \"#utility.yul\":197:198   */\n      0x00\n        /* \"#utility.yul\":194:195   */\n      0x00\n        /* \"#utility.yul\":187:199   */\n      revert\n        /* \"#utility.yul\":211:328   */\n    tag_104:\n        /* \"#utility.yul\":320:321   */\n      0x00\n        /* \"#utility.yul\":317:318   */\n      0x00\n        /* \"#utility.yul\":310:322   */\n      revert\n        /* \"#utility.yul\":334:411   */\n    tag_105:\n        /* \"#utility.yul\":371:378   */\n      0x00\n        /* \"#utility.yul\":400:405   */\n      dup2\n        /* \"#utility.yul\":389:405   */\n      swap1\n      pop\n        /* \"#utility.yul\":334:411   */\n      swap2\n      swap1\n      pop\n      jump\t// out\n        /* \"#utility.yul\":417:539   */\n    tag_106:\n        /* \"#utility.yul\":490:514   */\n      tag_162\n        /* \"#utility.yul\":508:513   */\n      dup2\n        /* \"#utility.yul\":490:514   */\n      tag_105\n      jump\t// in\n    tag_162:\n        /* \"#utility.yul\":483:488   */\n      dup2\n        /* \"#utility.yul\":480:515   */\n      eq\n        /* \"#utility.yul\":470:533   */\n      tag_163\n      jumpi\n        /* \"#utility.yul\":529:530   */\n      0x00\n        /* \"#utility.yul\":526:527   */\n      0x00\n        /* \"#utility.yul\":519:531   */\n      revert\n        /* \"#utility.yul\":470:533   */\n    tag_163:\n        /* \"#utility.yul\":417:539   */\n      pop\n      jump\t// out\n        /* \"#utility.yul\":545:684   */\n    tag_107:\n        /* \"#utility.yul\":591:596   */\n      0x00\n        /* \"#utility.yul\":629:635   */\n      dup2\n        /* \"#utility.yul\":616:636   */\n      calldataload\n        /* \"#utility.yul\":607:636   */\n      swap1\n      pop\n        /* \"#utility.yul\":645:678   */\n      tag_165\n        /* \"#utility.yul\":672:677   */\n      dup2\n        /* \"#utility.yul\":645:678   */\n      tag_106\n      jump\t// in\n    tag_165:\n        /* \"#utility.yul\":545:684   */\n      swap3\n      swap2\n      pop\n      pop\n      jump\t// out\n        /* \"#utility.yul\":690:1019   */\n    tag_11:\n        /* \"#utility.yul\":749:755   */\n      0x00\n        /* \"#utility.yul\":798:800   */\n      0x20\n        /* \"#utility.yul\":786:795   */\n      dup3\n        /* \"#utility.yul\":777:784   */\n      dup5\n        /* \"#utility.yul\":773:796   */\n      sub\n        /* \"#utility.yul\":769:801   */\n      slt\n        /* \"#utility.yul\":766:885   */\n      iszero\n      tag_167\n      jumpi\n        /* \"#utility.yul\":804:883   */\n      tag_168\n      tag_103\n      jump\t// in\n    tag_168:\n        /* \"#utility.yul\":766:885   */\n    tag_167:\n        /* \"#utility.yul\":924:925   */\n      0x00\n        /* \"#utility.yul\":949:1002   */\n      tag_169\n        /* \"#utility.yul\":994:1001   */\n      dup5\n        /* \"#utility.yul\":985:991   */\n      dup3\n        /* \"#utility.yul\":974:983   */\n      dup6\n        /* \"#utility.yul\":970:992   */\n      add\n        /* \"#utility.yul\":949:1002   */\n      tag_107\n      jump\t// in\n    tag_169:\n        /* \"#utility.yul\":939:1002   */\n      swap2\n      pop\n        /* \"#utility.yul\":895:1012   */\n      pop\n        /* \"#utility.yul\":690:1019   */\n      swap3\n      swap2\n      pop\n      pop\n      jump\t// out\n        /* \"#utility.yul\":1025:1143   */\n    tag_108:\n        /* \"#utility.yul\":1112:1136   */\n      tag_171\n        /* \"#utility.yul\":1130:1135   */\n      dup2\n        /* \"#utility.yul\":1112:1136   */\n      tag_105\n      jump\t// in\n    tag_171:\n        /* \"#utility.yul\":1107:1110   */\n      dup3\n        /* \"#utility.yul\":1100:1137   */\n      mstore\n        /* \"#utility.yul\":1025:1143   */\n      pop\n      pop\n      jump\t// out\n        /* \"#utility.yul\":1149:1371   */\n    tag_16:\n        /* \"#utility.yul\":1242:1246   */\n      0x00\n        /* \"#utility.yul\":1280:1282   */\n      0x20\n        /* \"#utility.yul\":1269:1278   */\n      dup3\n        /* \"#utility.yul\":1265:1283   */\n      add\n        /* \"#utility.yul\":1257:1283   */\n      swap1\n      pop\n        /* \"#utility.yul\":1293:1364   */\n      tag_173\n        /* \"#utility.yul\":1361:1362   */\n      0x00\n        /* \"#utility.yul\":1350:1359   */\n      dup4\n        /* \"#utility.yul\":1346:1363   */\n      add\n        /* \"#utility.yul\":1337:1343   */\n      dup5\n        /* \"#utility.yul\":1293:1364   */\n      tag_108\n      jump\t// in\n    tag_173:\n        /* \"#utility.yul\":1149:1371   */\n      swap3\n      swap2\n      pop\n      pop\n      jump\t// out\n        /* \"#utility.yul\":1377:1494   */\n    tag_109:\n        /* \"#utility.yul\":1486:1487   */\n      0x00\n        /* \"#utility.yul\":1483:1484   */\n      0x00\n        /* \"#utility.yul\":1476:1488   */\n      revert\n        /* \"#utility.yul\":1500:1617   */\n    tag_110:\n        /* \"#utility.yul\":1609:1610   */\n      0x00\n        /* \"#utility.yul\":1606:1607   */\n      0x00\n        /* \"#utility.yul\":1599:1611   */\n      revert\n        /* \"#utility.yul\":1623:1725   */\n    tag_111:\n        /* \"#utility.yul\":1664:1670   */\n      0x00\n        /* \"#utility.yul\":1715:1717   */\n      0x1f\n        /* \"#utility.yul\":1711:1718   */\n      not\n        /* \"#utility.yul\":1706:1708   */\n      0x1f\n        /* \"#utility.yul\":1699:1704   */\n      dup4\n        /* \"#utility.yul\":1695:1709   */\n      add\n        /* \"#utility.yul\":1691:1719   */\n      and\n        /* \"#utility.yul\":1681:1719   */\n      swap1\n      pop\n        /* \"#utility.yul\":1623:1725   */\n      swap2\n      swap1\n      pop\n      jump\t// out\n        /* \"#utility.yul\":1731:1911   */\n    tag_112:\n        /* \"#utility.yul\":1779:1856   */\n      0x4e487b7100000000000000000000000000000000000000000000000000000000\n        /* \"#utility.yul\":1776:1777   */\n      0x00\n        /* \"#utility.yul\":1769:1857   */\n      mstore\n        /* \"#utility.yul\":1876:1880   */\n      0x41\n        /* \"#utility.yul\":1873:1874   */\n      0x04\n        /* \"#utility.yul\":1866:1881   */\n      mstore\n        /* \"#utility.yul\":1900:1904   */\n      0x24\n        /* \"#utility.yul\":1897:1898   */\n      0x00\n        /* \"#utility.yul\":1890:1905   */\n      revert\n        /* \"#utility.yul\":1917:2198   */\n    tag_113:\n        /* \"#utility.yul\":2000:2027   */\n      tag_179\n        /* \"#utility.yul\":2022:2026   */\n      dup3\n        /* \"#utility.yul\":2000:2027   */\n      tag_111\n      jump\t// in\n    tag_179:\n        /* \"#utility.yul\":1992:1998   */\n      dup2\n        /* \"#utility.yul\":1988:2028   */\n      add\n        /* \"#utility.yul\":2130:2136   */\n      dup2\n        /* \"#utility.yul\":2118:2128   */\n      dup2\n        /* \"#utility.yul\":2115:2137   */\n      lt\n        /* \"#utility.yul\":2094:2112   */\n      0xffffffffffffffff\n        /* \"#utility.yul\":2082:2092   */\n      dup3\n        /* \"#utility.yul\":2079:2113   */\n      gt\n        /* \"#utility.yul\":2076:2138   */\n      or\n        /* \"#utility.yul\":2073:2161   */\n      iszero\n      tag_180\n      jumpi\n        /* \"#utility.yul\":2141:2159   */\n      tag_181\n      tag_112\n      jump\t// in\n    tag_181:\n        /* \"#utility.yul\":2073:2161   */\n    tag_180:\n        /* \"#utility.yul\":2181:2191   */\n      dup1\n        /* \"#utility.yul\":2177:2179   */\n      0x40\n        /* \"#utility.yul\":2170:2192   */\n      mstore\n        /* \"#utility.yul\":1960:2198   */\n      pop\n        /* \"#utility.yul\":1917:2198   */\n      pop\n      pop\n      jump\t// out\n        /* \"#utility.yul\":2204:2333   */\n    tag_114:\n        /* \"#utility.yul\":2238:2244   */\n      0x00\n        /* \"#utility.yul\":2265:2285   */\n      tag_183\n      tag_102\n      jump\t// in\n    tag_183:\n        /* \"#utility.yul\":2255:2285   */\n      swap1\n      pop\n        /* \"#utility.yul\":2294:2327   */\n      tag_184\n        /* \"#utility.yul\":2322:2326   */\n      dup3\n        /* \"#utility.yul\":2314:2320   */\n      dup3\n        /* \"#utility.yul\":2294:2327   */\n      tag_113\n      jump\t// in\n    tag_184:\n        /* \"#utility.yul\":2204:2333   */\n      swap2\n      swap1\n      pop\n      jump\t// out\n        /* \"#utility.yul\":2339:2647   */\n    tag_115:\n        /* \"#utility.yul\":2401:2405   */\n      0x00\n        /* \"#utility.yul\":2491:2509   */\n      0xffffffffffffffff\n        /* \"#utility.yul\":2483:2489   */\n      dup3\n        /* \"#utility.yul\":2480:2510   */\n      gt\n        /* \"#utility.yul\":2477:2533   */\n      iszero\n      tag_186\n      jumpi\n        /* \"#utility.yul\":2513:2531   */\n      tag_187\n      tag_112\n      jump\t// in\n    tag_187:\n        /* \"#utility.yul\":2477:2533   */\n    tag_186:\n        /* \"#utility.yul\":2551:2580   */\n      tag_188\n        /* \"#utility.yul\":2573:2579   */\n      dup3\n        /* \"#utility.yul\":2551:2580   */\n      tag_111\n      jump\t// in\n    tag_188:\n        /* \"#utility.yul\":2543:2580   */\n      swap1\n      pop\n        /* \"#utility.yul\":2635:2639   */\n      0x20\n        /* \"#utility.yul\":2629:2633   */\n      dup2\n        /* \"#utility.yul\":2625:2640   */\n      add\n        /* \"#utility.yul\":2617:2640   */\n      swap1\n      pop\n        /* \"#utility.yul\":2339:2647   */\n      swap2\n      swap1\n      pop\n      jump\t// out\n        /* \"#utility.yul\":2653:2801   */\n    tag_116:\n        /* \"#utility.yul\":2751:2757   */\n      dup3\n        /* \"#utility.yul\":2746:2749   */\n      dup2\n        /* \"#utility.yul\":2741:2744   */\n      dup4\n        /* \"#utility.yul\":2728:2758   */\n      calldatacopy\n        /* \"#utility.yul\":2792:2793   */\n      0x00\n        /* \"#utility.yul\":2783:2789   */\n      dup4\n        /* \"#utility.yul\":2778:2781   */\n      dup4\n        /* \"#utility.yul\":2774:2790   */\n      add\n        /* \"#utility.yul\":2767:2794   */\n      mstore\n        /* \"#utility.yul\":2653:2801   */\n      pop\n      pop\n      pop\n      jump\t// out\n        /* \"#utility.yul\":2807:3232   */\n    tag_117:\n        /* \"#utility.yul\":2885:2890   */\n      0x00\n        /* \"#utility.yul\":2910:2976   */\n      tag_191\n        /* \"#utility.yul\":2926:2975   */\n      tag_192\n        /* \"#utility.yul\":2968:2974   */\n      dup5\n        /* \"#utility.yul\":2926:2975   */\n      tag_115\n      jump\t// in\n    tag_192:\n        /* \"#utility.yul\":2910:2976   */\n      tag_114\n      jump\t// in\n    tag_191:\n        /* \"#utility.yul\":2901:2976   */\n      swap1\n      pop\n        /* \"#utility.yul\":2999:3005   */\n      dup3\n        /* \"#utility.yul\":2992:2997   */\n      dup2\n        /* \"#utility.yul\":2985:3006   */\n      mstore\n        /* \"#utility.yul\":3037:3041   */\n      0x20\n        /* \"#utility.yul\":3030:3035   */\n      dup2\n        /* \"#utility.yul\":3026:3042   */\n      add\n        /* \"#utility.yul\":3075:3078   */\n      dup5\n        /* \"#utility.yul\":3066:3072   */\n      dup5\n        /* \"#utility.yul\":3061:3064   */\n      dup5\n        /* \"#utility.yul\":3057:3073   */\n      add\n        /* \"#utility.yul\":3054:3079   */\n      gt\n        /* \"#utility.yul\":3051:3163   */\n      iszero\n      tag_193\n      jumpi\n        /* \"#utility.yul\":3082:3161   */\n      tag_194\n      tag_110\n      jump\t// in\n    tag_194:\n        /* \"#utility.yul\":3051:3163   */\n    tag_193:\n        /* \"#utility.yul\":3172:3226   */\n      tag_195\n        /* \"#utility.yul\":3219:3225   */\n      dup5\n        /* \"#utility.yul\":3214:3217   */\n      dup3\n        /* \"#utility.yul\":3209:3212   */\n      dup6\n        /* \"#utility.yul\":3172:3226   */\n      tag_116\n      jump\t// in\n    tag_195:\n        /* \"#utility.yul\":2891:3232   */\n      pop\n        /* \"#utility.yul\":2807:3232   */\n      swap4\n      swap3\n      pop\n      pop\n      pop\n      jump\t// out\n        /* \"#utility.yul\":3252:3592   */\n    tag_118:\n        /* \"#utility.yul\":3308:3313   */\n      0x00\n        /* \"#utility.yul\":3357:3360   */\n      dup3\n        /* \"#utility.yul\":3350:3354   */\n      0x1f\n        /* \"#utility.yul\":3342:3348   */\n      dup4\n        /* \"#utility.yul\":3338:3355   */\n      add\n        /* \"#utility.yul\":3334:3361   */\n      slt\n        /* \"#utility.yul\":3324:3446   */\n      tag_197\n      jumpi\n        /* \"#utility.yul\":3365:3444   */\n      tag_198\n      tag_109\n      jump\t// in\n    tag_198:\n        /* \"#utility.yul\":3324:3446   */\n    tag_197:\n        /* \"#utility.yul\":3482:3488   */\n      dup2\n        /* \"#utility.yul\":3469:3489   */\n      calldataload\n        /* \"#utility.yul\":3507:3586   */\n      tag_199\n        /* \"#utility.yul\":3582:3585   */\n      dup5\n        /* \"#utility.yul\":3574:3580   */\n      dup3\n        /* \"#utility.yul\":3567:3571   */\n      0x20\n        /* \"#utility.yul\":3559:3565   */\n      dup7\n        /* \"#utility.yul\":3555:3572   */\n      add\n        /* \"#utility.yul\":3507:3586   */\n      tag_117\n      jump\t// in\n    tag_199:\n        /* \"#utility.yul\":3498:3586   */\n      swap2\n      pop\n        /* \"#utility.yul\":3314:3592   */\n      pop\n        /* \"#utility.yul\":3252:3592   */\n      swap3\n      swap2\n      pop\n      pop\n      jump\t// out\n        /* \"#utility.yul\":3598:4577   */\n    tag_19:\n        /* \"#utility.yul\":3695:3701   */\n      0x00\n        /* \"#utility.yul\":3703:3709   */\n      0x00\n        /* \"#utility.yul\":3711:3717   */\n      0x00\n        /* \"#utility.yul\":3760:3762   */\n      0x60\n        /* \"#utility.yul\":3748:3757   */\n      dup5\n        /* \"#utility.yul\":3739:3746   */\n      dup7\n        /* \"#utility.yul\":3735:3758   */\n      sub\n        /* \"#utility.yul\":3731:3763   */\n      slt\n        /* \"#utility.yul\":3728:3847   */\n      iszero\n      tag_201\n      jumpi\n        /* \"#utility.yul\":3766:3845   */\n      tag_202\n      tag_103\n      jump\t// in\n    tag_202:\n        /* \"#utility.yul\":3728:3847   */\n    tag_201:\n        /* \"#utility.yul\":3914:3915   */\n      0x00\n        /* \"#utility.yul\":3903:3912   */\n      dup5\n        /* \"#utility.yul\":3899:3916   */\n      add\n        /* \"#utility.yul\":3886:3917   */\n      calldataload\n        /* \"#utility.yul\":3944:3962   */\n      0xffffffffffffffff\n        /* \"#utility.yul\":3936:3942   */\n      dup2\n        /* \"#utility.yul\":3933:3963   */\n      gt\n        /* \"#utility.yul\":3930:4047   */\n      iszero\n      tag_203\n      jumpi\n        /* \"#utility.yul\":3966:4045   */\n      tag_204\n      tag_104\n      jump\t// in\n    tag_204:\n        /* \"#utility.yul\":3930:4047   */\n    tag_203:\n        /* \"#utility.yul\":4071:4134   */\n      tag_205\n        /* \"#utility.yul\":4126:4133   */\n      dup7\n        /* \"#utility.yul\":4117:4123   */\n      dup3\n        /* \"#utility.yul\":4106:4115   */\n      dup8\n        /* \"#utility.yul\":4102:4124   */\n      add\n        /* \"#utility.yul\":4071:4134   */\n      tag_118\n      jump\t// in\n    tag_205:\n        /* \"#utility.yul\":4061:4134   */\n      swap4\n      pop\n        /* \"#utility.yul\":3857:4144   */\n      pop\n        /* \"#utility.yul\":4211:4213   */\n      0x20\n        /* \"#utility.yul\":4200:4209   */\n      dup5\n        /* \"#utility.yul\":4196:4214   */\n      add\n        /* \"#utility.yul\":4183:4215   */\n      calldataload\n        /* \"#utility.yul\":4242:4260   */\n      0xffffffffffffffff\n        /* \"#utility.yul\":4234:4240   */\n      dup2\n        /* \"#utility.yul\":4231:4261   */\n      gt\n        /* \"#utility.yul\":4228:4345   */\n      iszero\n      tag_206\n      jumpi\n        /* \"#utility.yul\":4264:4343   */\n      tag_207\n      tag_104\n      jump\t// in\n    tag_207:\n        /* \"#utility.yul\":4228:4345   */\n    tag_206:\n        /* \"#utility.yul\":4369:4432   */\n      tag_208\n        /* \"#utility.yul\":4424:4431   */\n      dup7\n        /* \"#utility.yul\":4415:4421   */\n      dup3\n        /* \"#utility.yul\":4404:4413   */\n      dup8\n        /* \"#utility.yul\":4400:4422   */\n      add\n        /* \"#utility.yul\":4369:4432   */\n      tag_118\n      jump\t// in\n    tag_208:\n        /* \"#utility.yul\":4359:4432   */\n      swap3\n      pop\n        /* \"#utility.yul\":4154:4442   */\n      pop\n        /* \"#utility.yul\":4481:4483   */\n      0x40\n        /* \"#utility.yul\":4507:4560   */\n      tag_209\n        /* \"#utility.yul\":4552:4559   */\n      dup7\n        /* \"#utility.yul\":4543:4549   */\n      dup3\n        /* \"#utility.yul\":4532:4541   */\n      dup8\n        /* \"#utility.yul\":4528:4550   */\n      add\n        /* \"#utility.yul\":4507:4560   */\n      tag_107\n      jump\t// in\n    tag_209:\n        /* \"#utility.yul\":4497:4560   */\n      swap2\n      pop\n        /* \"#utility.yul\":4452:4570   */\n      pop\n        /* \"#utility.yul\":3598:4577   */\n      swap3\n      pop\n      swap3\n      pop\n      swap3\n      jump\t// out\n        /* \"#utility.yul\":4583:4682   */\n    tag_119:\n        /* \"#utility.yul\":4635:4641   */\n      0x00\n        /* \"#utility.yul\":4669:4674   */\n      dup2\n        /* \"#utility.yul\":4663:4675   */\n      mload\n        /* \"#utility.yul\":4653:4675   */\n      swap1\n      pop\n        /* \"#utility.yul\":4583:4682   */\n      swap2\n      swap1\n      pop\n      jump\t// out\n        /* \"#utility.yul\":4688:4857   */\n    tag_120:\n        /* \"#utility.yul\":4772:4783   */\n      0x00\n        /* \"#utility.yul\":4806:4812   */\n      dup3\n        /* \"#utility.yul\":4801:4804   */\n      dup3\n        /* \"#utility.yul\":4794:4813   */\n      mstore\n        /* \"#utility.yul\":4846:4850   */\n      0x20\n        /* \"#utility.yul\":4841:4844   */\n      dup3\n        /* \"#utility.yul\":4837:4851   */\n      add\n        /* \"#utility.yul\":4822:4851   */\n      swap1\n      pop\n        /* \"#utility.yul\":4688:4857   */\n      swap3\n      swap2\n      pop\n      pop\n      jump\t// out\n        /* \"#utility.yul\":4863:5002   */\n    tag_121:\n        /* \"#utility.yul\":4952:4958   */\n      dup3\n        /* \"#utility.yul\":4947:4950   */\n      dup2\n        /* \"#utility.yul\":4942:4945   */\n      dup4\n        /* \"#utility.yul\":4936:4959   */\n      mcopy\n        /* \"#utility.yul\":4993:4994   */\n      0x00\n        /* \"#utility.yul\":4984:4990   */\n      dup4\n        /* \"#utility.yul\":4979:4982   */\n      dup4\n        /* \"#utility.yul\":4975:4991   */\n      add\n        /* \"#utility.yul\":4968:4995   */\n      mstore\n        /* \"#utility.yul\":4863:5002   */\n      pop\n      pop\n      pop\n      jump\t// out\n        /* \"#utility.yul\":5008:5385   */\n    tag_122:\n        /* \"#utility.yul\":5096:5099   */\n      0x00\n        /* \"#utility.yul\":5124:5163   */\n      tag_214\n        /* \"#utility.yul\":5157:5162   */\n      dup3\n        /* \"#utility.yul\":5124:5163   */\n      tag_119\n      jump\t// in\n    tag_214:\n        /* \"#utility.yul\":5179:5250   */\n      tag_215\n        /* \"#utility.yul\":5243:5249   */\n      dup2\n        /* \"#utility.yul\":5238:5241   */\n      dup6\n        /* \"#utility.yul\":5179:5250   */\n      tag_120\n      jump\t// in\n    tag_215:\n        /* \"#utility.yul\":5172:5250   */\n      swap4\n      pop\n        /* \"#utility.yul\":5259:5324   */\n      tag_216\n        /* \"#utility.yul\":5317:5323   */\n      dup2\n        /* \"#utility.yul\":5312:5315   */\n      dup6\n        /* \"#utility.yul\":5305:5309   */\n      0x20\n        /* \"#utility.yul\":5298:5303   */\n      dup7\n        /* \"#utility.yul\":5294:5310   */\n      add\n        /* \"#utility.yul\":5259:5324   */\n      tag_121\n      jump\t// in\n    tag_216:\n        /* \"#utility.yul\":5349:5378   */\n      tag_217\n        /* \"#utility.yul\":5371:5377   */\n      dup2\n        /* \"#utility.yul\":5349:5378   */\n      tag_111\n      jump\t// in\n    tag_217:\n        /* \"#utility.yul\":5344:5347   */\n      dup5\n        /* \"#utility.yul\":5340:5379   */\n      add\n        /* \"#utility.yul\":5333:5379   */\n      swap2\n      pop\n        /* \"#utility.yul\":5100:5385   */\n      pop\n        /* \"#utility.yul\":5008:5385   */\n      swap3\n      swap2\n      pop\n      pop\n      jump\t// out\n        /* \"#utility.yul\":5391:6237   */\n    tag_25:\n        /* \"#utility.yul\":5636:5640   */\n      0x00\n        /* \"#utility.yul\":5674:5677   */\n      0xa0\n        /* \"#utility.yul\":5663:5672   */\n      dup3\n        /* \"#utility.yul\":5659:5678   */\n      add\n        /* \"#utility.yul\":5651:5678   */\n      swap1\n      pop\n        /* \"#utility.yul\":5724:5733   */\n      dup2\n        /* \"#utility.yul\":5718:5722   */\n      dup2\n        /* \"#utility.yul\":5714:5734   */\n      sub\n        /* \"#utility.yul\":5710:5711   */\n      0x00\n        /* \"#utility.yul\":5699:5708   */\n      dup4\n        /* \"#utility.yul\":5695:5712   */\n      add\n        /* \"#utility.yul\":5688:5735   */\n      mstore\n        /* \"#utility.yul\":5752:5830   */\n      tag_219\n        /* \"#utility.yul\":5825:5829   */\n      dup2\n        /* \"#utility.yul\":5816:5822   */\n      dup9\n        /* \"#utility.yul\":5752:5830   */\n      tag_122\n      jump\t// in\n    tag_219:\n        /* \"#utility.yul\":5744:5830   */\n      swap1\n      pop\n        /* \"#utility.yul\":5840:5912   */\n      tag_220\n        /* \"#utility.yul\":5908:5910   */\n      0x20\n        /* \"#utility.yul\":5897:5906   */\n      dup4\n        /* \"#utility.yul\":5893:5911   */\n      add\n        /* \"#utility.yul\":5884:5890   */\n      dup8\n        /* \"#utility.yul\":5840:5912   */\n      tag_108\n      jump\t// in\n    tag_220:\n        /* \"#utility.yul\":5959:5968   */\n      dup2\n        /* \"#utility.yul\":5953:5957   */\n      dup2\n        /* \"#utility.yul\":5949:5969   */\n      sub\n        /* \"#utility.yul\":5944:5946   */\n      0x40\n        /* \"#utility.yul\":5933:5942   */\n      dup4\n        /* \"#utility.yul\":5929:5947   */\n      add\n        /* \"#utility.yul\":5922:5970   */\n      mstore\n        /* \"#utility.yul\":5987:6065   */\n      tag_221\n        /* \"#utility.yul\":6060:6064   */\n      dup2\n        /* \"#utility.yul\":6051:6057   */\n      dup7\n        /* \"#utility.yul\":5987:6065   */\n      tag_122\n      jump\t// in\n    tag_221:\n        /* \"#utility.yul\":5979:6065   */\n      swap1\n      pop\n        /* \"#utility.yul\":6075:6147   */\n      tag_222\n        /* \"#utility.yul\":6143:6145   */\n      0x60\n        /* \"#utility.yul\":6132:6141   */\n      dup4\n        /* \"#utility.yul\":6128:6146   */\n      add\n        /* \"#utility.yul\":6119:6125   */\n      dup6\n        /* \"#utility.yul\":6075:6147   */\n      tag_108\n      jump\t// in\n    tag_222:\n        /* \"#utility.yul\":6157:6230   */\n      tag_223\n        /* \"#utility.yul\":6225:6228   */\n      0x80\n        /* \"#utility.yul\":6214:6223   */\n      dup4\n        /* \"#utility.yul\":6210:6229   */\n      add\n        /* \"#utility.yul\":6201:6207   */\n      dup5\n        /* \"#utility.yul\":6157:6230   */\n      tag_108\n      jump\t// in\n    tag_223:\n        /* \"#utility.yul\":5391:6237   */\n      swap7\n      swap6\n      pop\n      pop\n      pop\n      pop\n      pop\n      pop\n      jump\t// out\n        /* \"#utility.yul\":6243:6369   */\n    tag_123:\n        /* \"#utility.yul\":6280:6287   */\n      0x00\n        /* \"#utility.yul\":6320:6362   */\n      0xffffffffffffffffffffffffffffffffffffffff\n        /* \"#utility.yul\":6313:6318   */\n      dup3\n        /* \"#utility.yul\":6309:6363   */\n      and\n        /* \"#utility.yul\":6298:6363   */\n      swap1\n      pop\n        /* \"#utility.yul\":6243:6369   */\n      swap2\n      swap1\n      pop\n      jump\t// out\n        /* \"#utility.yul\":6375:6471   */\n    tag_124:\n        /* \"#utility.yul\":6412:6419   */\n      0x00\n        /* \"#utility.yul\":6441:6465   */\n      tag_226\n        /* \"#utility.yul\":6459:6464   */\n      dup3\n        /* \"#utility.yul\":6441:6465   */\n      tag_123\n      jump\t// in\n    tag_226:\n        /* \"#utility.yul\":6430:6465   */\n      swap1\n      pop\n        /* \"#utility.yul\":6375:6471   */\n      swap2\n      swap1\n      pop\n      jump\t// out\n        /* \"#utility.yul\":6477:6599   */\n    tag_125:\n        /* \"#utility.yul\":6550:6574   */\n      tag_228\n        /* \"#utility.yul\":6568:6573   */\n      dup2\n        /* \"#utility.yul\":6550:6574   */\n      tag_124\n      jump\t// in\n    tag_228:\n        /* \"#utility.yul\":6543:6548   */\n      dup2\n        /* \"#utility.yul\":6540:6575   */\n      eq\n        /* \"#utility.yul\":6530:6593   */\n      tag_229\n      jumpi\n        /* \"#utility.yul\":6589:6590   */\n      0x00\n        /* \"#utility.yul\":6586:6587   */\n      0x00\n        /* \"#utility.yul\":6579:6591   */\n      revert\n        /* \"#utility.yul\":6530:6593   */\n    tag_229:\n        /* \"#utility.yul\":6477:6599   */\n      pop\n      jump\t// out\n        /* \"#utility.yul\":6605:6744   */\n    tag_126:\n        /* \"#utility.yul\":6651:6656   */\n      0x00\n        /* \"#utility.yul\":6689:6695   */\n      dup2\n        /* \"#utility.yul\":6676:6696   */\n      calldataload\n        /* \"#utility.yul\":6667:6696   */\n      swap1\n      pop\n        /* \"#utility.yul\":6705:6738   */\n      tag_231\n        /* \"#utility.yul\":6732:6737   */\n      dup2\n        /* \"#utility.yul\":6705:6738   */\n      tag_125\n      jump\t// in\n    tag_231:\n        /* \"#utility.yul\":6605:6744   */\n      swap3\n      swap2\n      pop\n      pop\n      jump\t// out\n        /* \"#utility.yul\":6750:7224   */\n    tag_28:\n        /* \"#utility.yul\":6818:6824   */\n      0x00\n        /* \"#utility.yul\":6826:6832   */\n      0x00\n        /* \"#utility.yul\":6875:6877   */\n      0x40\n        /* \"#utility.yul\":6863:6872   */\n      dup4\n        /* \"#utility.yul\":6854:6861   */\n      dup6\n        /* \"#utility.yul\":6850:6873   */\n      sub\n        /* \"#utility.yul\":6846:6878   */\n      slt\n        /* \"#utility.yul\":6843:6962   */\n      iszero\n      tag_233\n      jumpi\n        /* \"#utility.yul\":6881:6960   */\n      tag_234\n      tag_103\n      jump\t// in\n    tag_234:\n        /* \"#utility.yul\":6843:6962   */\n    tag_233:\n        /* \"#utility.yul\":7001:7002   */\n      0x00\n        /* \"#utility.yul\":7026:7079   */\n      tag_235\n        /* \"#utility.yul\":7071:7078   */\n      dup6\n        /* \"#utility.yul\":7062:7068   */\n      dup3\n        /* \"#utility.yul\":7051:7060   */\n      dup7\n        /* \"#utility.yul\":7047:7069   */\n      add\n        /* \"#utility.yul\":7026:7079   */\n      tag_107\n      jump\t// in\n    tag_235:\n        /* \"#utility.yul\":7016:7079   */\n      swap3\n      pop\n        /* \"#utility.yul\":6972:7089   */\n      pop\n        /* \"#utility.yul\":7128:7130   */\n      0x20\n        /* \"#utility.yul\":7154:7207   */\n      tag_236\n        /* \"#utility.yul\":7199:7206   */\n      dup6\n        /* \"#utility.yul\":7190:7196   */\n      dup3\n        /* \"#utility.yul\":7179:7188   */\n      dup7\n        /* \"#utility.yul\":7175:7197   */\n      add\n        /* \"#utility.yul\":7154:7207   */\n      tag_126\n      jump\t// in\n    tag_236:\n        /* \"#utility.yul\":7144:7207   */\n      swap2\n      pop\n        /* \"#utility.yul\":7099:7217   */\n      pop\n        /* \"#utility.yul\":6750:7224   */\n      swap3\n      pop\n      swap3\n      swap1\n      pop\n      jump\t// out\n        /* \"#utility.yul\":7230:7562   */\n    tag_31:\n        /* \"#utility.yul\":7351:7355   */\n      0x00\n        /* \"#utility.yul\":7389:7391   */\n      0x40\n        /* \"#utility.yul\":7378:7387   */\n      dup3\n        /* \"#utility.yul\":7374:7392   */\n      add\n        /* \"#utility.yul\":7366:7392   */\n      swap1\n      pop\n        /* \"#utility.yul\":7402:7473   */\n      tag_238\n        /* \"#utility.yul\":7470:7471   */\n      0x00\n        /* \"#utility.yul\":7459:7468   */\n      dup4\n        /* \"#utility.yul\":7455:7472   */\n      add\n        /* \"#utility.yul\":7446:7452   */\n      dup6\n        /* \"#utility.yul\":7402:7473   */\n      tag_108\n      jump\t// in\n    tag_238:\n        /* \"#utility.yul\":7483:7555   */\n      tag_239\n        /* \"#utility.yul\":7551:7553   */\n      0x20\n        /* \"#utility.yul\":7540:7549   */\n      dup4\n        /* \"#utility.yul\":7536:7554   */\n      add\n        /* \"#utility.yul\":7527:7533   */\n      dup5\n        /* \"#utility.yul\":7483:7555   */\n      tag_108\n      jump\t// in\n    tag_239:\n        /* \"#utility.yul\":7230:7562   */\n      swap4\n      swap3\n      pop\n      pop\n      pop\n      jump\t// out\n        /* \"#utility.yul\":7568:7727   */\n    tag_127:\n        /* \"#utility.yul\":7642:7653   */\n      0x00\n        /* \"#utility.yul\":7676:7682   */\n      dup3\n        /* \"#utility.yul\":7671:7674   */\n      dup3\n        /* \"#utility.yul\":7664:7683   */\n      mstore\n        /* \"#utility.yul\":7716:7720   */\n      0x20\n        /* \"#utility.yul\":7711:7714   */\n      dup3\n        /* \"#utility.yul\":7707:7721   */\n      add\n        /* \"#utility.yul\":7692:7721   */\n      swap1\n      pop\n        /* \"#utility.yul\":7568:7727   */\n      swap3\n      swap2\n      pop\n      pop\n      jump\t// out\n        /* \"#utility.yul\":7733:8090   */\n    tag_128:\n        /* \"#utility.yul\":7811:7814   */\n      0x00\n        /* \"#utility.yul\":7839:7878   */\n      tag_242\n        /* \"#utility.yul\":7872:7877   */\n      dup3\n        /* \"#utility.yul\":7839:7878   */\n      tag_119\n      jump\t// in\n    tag_242:\n        /* \"#utility.yul\":7894:7955   */\n      tag_243\n        /* \"#utility.yul\":7948:7954   */\n      dup2\n        /* \"#utility.yul\":7943:7946   */\n      dup6\n        /* \"#utility.yul\":7894:7955   */\n      tag_127\n      jump\t// in\n    tag_243:\n        /* \"#utility.yul\":7887:7955   */\n      swap4\n      pop\n        /* \"#utility.yul\":7964:8029   */\n      tag_244\n        /* \"#utility.yul\":8022:8028   */\n      dup2\n        /* \"#utility.yul\":8017:8020   */\n      dup6\n        /* \"#utility.yul\":8010:8014   */\n      0x20\n        /* \"#utility.yul\":8003:8008   */\n      dup7\n        /* \"#utility.yul\":7999:8015   */\n      add\n        /* \"#utility.yul\":7964:8029   */\n      tag_121\n      jump\t// in\n    tag_244:\n        /* \"#utility.yul\":8054:8083   */\n      tag_245\n        /* \"#utility.yul\":8076:8082   */\n      dup2\n        /* \"#utility.yul\":8054:8083   */\n      tag_111\n      jump\t// in\n    tag_245:\n        /* \"#utility.yul\":8049:8052   */\n      dup5\n        /* \"#utility.yul\":8045:8084   */\n      add\n        /* \"#utility.yul\":8038:8084   */\n      swap2\n      pop\n        /* \"#utility.yul\":7815:8090   */\n      pop\n        /* \"#utility.yul\":7733:8090   */\n      swap3\n      swap2\n      pop\n      pop\n      jump\t// out\n        /* \"#utility.yul\":8096:8204   */\n    tag_129:\n        /* \"#utility.yul\":8173:8197   */\n      tag_247\n        /* \"#utility.yul\":8191:8196   */\n      dup2\n        /* \"#utility.yul\":8173:8197   */\n      tag_105\n      jump\t// in\n    tag_247:\n        /* \"#utility.yul\":8168:8171   */\n      dup3\n        /* \"#utility.yul\":8161:8198   */\n      mstore\n        /* \"#utility.yul\":8096:8204   */\n      pop\n      pop\n      jump\t// out\n        /* \"#utility.yul\":8248:9454   */\n    tag_130:\n        /* \"#utility.yul\":8361:8364   */\n      0x00\n        /* \"#utility.yul\":8397:8401   */\n      0xa0\n        /* \"#utility.yul\":8392:8395   */\n      dup4\n        /* \"#utility.yul\":8388:8402   */\n      add\n        /* \"#utility.yul\":8487:8491   */\n      0x00\n        /* \"#utility.yul\":8480:8485   */\n      dup4\n        /* \"#utility.yul\":8476:8492   */\n      add\n        /* \"#utility.yul\":8470:8493   */\n      mload\n        /* \"#utility.yul\":8540:8543   */\n      dup5\n        /* \"#utility.yul\":8534:8538   */\n      dup3\n        /* \"#utility.yul\":8530:8544   */\n      sub\n        /* \"#utility.yul\":8523:8527   */\n      0x00\n        /* \"#utility.yul\":8518:8521   */\n      dup7\n        /* \"#utility.yul\":8514:8528   */\n      add\n        /* \"#utility.yul\":8507:8545   */\n      mstore\n        /* \"#utility.yul\":8566:8639   */\n      tag_249\n        /* \"#utility.yul\":8634:8638   */\n      dup3\n        /* \"#utility.yul\":8620:8632   */\n      dup3\n        /* \"#utility.yul\":8566:8639   */\n      tag_128\n      jump\t// in\n    tag_249:\n        /* \"#utility.yul\":8558:8639   */\n      swap2\n      pop\n        /* \"#utility.yul\":8412:8650   */\n      pop\n        /* \"#utility.yul\":8734:8738   */\n      0x20\n        /* \"#utility.yul\":8727:8732   */\n      dup4\n        /* \"#utility.yul\":8723:8739   */\n      add\n        /* \"#utility.yul\":8717:8740   */\n      mload\n        /* \"#utility.yul\":8753:8816   */\n      tag_250\n        /* \"#utility.yul\":8810:8814   */\n      0x20\n        /* \"#utility.yul\":8805:8808   */\n      dup7\n        /* \"#utility.yul\":8801:8815   */\n      add\n        /* \"#utility.yul\":8787:8799   */\n      dup3\n        /* \"#utility.yul\":8753:8816   */\n      tag_129\n      jump\t// in\n    tag_250:\n        /* \"#utility.yul\":8660:8826   */\n      pop\n        /* \"#utility.yul\":8911:8915   */\n      0x40\n        /* \"#utility.yul\":8904:8909   */\n      dup4\n        /* \"#utility.yul\":8900:8916   */\n      add\n        /* \"#utility.yul\":8894:8917   */\n      mload\n        /* \"#utility.yul\":8964:8967   */\n      dup5\n        /* \"#utility.yul\":8958:8962   */\n      dup3\n        /* \"#utility.yul\":8954:8968   */\n      sub\n        /* \"#utility.yul\":8947:8951   */\n      0x40\n        /* \"#utility.yul\":8942:8945   */\n      dup7\n        /* \"#utility.yul\":8938:8952   */\n      add\n        /* \"#utility.yul\":8931:8969   */\n      mstore\n        /* \"#utility.yul\":8990:9063   */\n      tag_251\n        /* \"#utility.yul\":9058:9062   */\n      dup3\n        /* \"#utility.yul\":9044:9056   */\n      dup3\n        /* \"#utility.yul\":8990:9063   */\n      tag_128\n      jump\t// in\n    tag_251:\n        /* \"#utility.yul\":8982:9063   */\n      swap2\n      pop\n        /* \"#utility.yul\":8836:9074   */\n      pop\n        /* \"#utility.yul\":9158:9162   */\n      0x60\n        /* \"#utility.yul\":9151:9156   */\n      dup4\n        /* \"#utility.yul\":9147:9163   */\n      add\n        /* \"#utility.yul\":9141:9164   */\n      mload\n        /* \"#utility.yul\":9177:9240   */\n      tag_252\n        /* \"#utility.yul\":9234:9238   */\n      0x60\n        /* \"#utility.yul\":9229:9232   */\n      dup7\n        /* \"#utility.yul\":9225:9239   */\n      add\n        /* \"#utility.yul\":9211:9223   */\n      dup3\n        /* \"#utility.yul\":9177:9240   */\n      tag_129\n      jump\t// in\n    tag_252:\n        /* \"#utility.yul\":9084:9250   */\n      pop\n        /* \"#utility.yul\":9335:9339   */\n      0x80\n        /* \"#utility.yul\":9328:9333   */\n      dup4\n        /* \"#utility.yul\":9324:9340   */\n      add\n        /* \"#utility.yul\":9318:9341   */\n      mload\n        /* \"#utility.yul\":9354:9417   */\n      tag_253\n        /* \"#utility.yul\":9411:9415   */\n      0x80\n        /* \"#utility.yul\":9406:9409   */\n      dup7\n        /* \"#utility.yul\":9402:9416   */\n      add\n        /* \"#utility.yul\":9388:9400   */\n      dup3\n        /* \"#utility.yul\":9354:9417   */\n      tag_129\n      jump\t// in\n    tag_253:\n        /* \"#utility.yul\":9260:9427   */\n      pop\n        /* \"#utility.yul\":9444:9448   */\n      dup1\n        /* \"#utility.yul\":9437:9448   */\n      swap2\n      pop\n        /* \"#utility.yul\":8366:9454   */\n      pop\n        /* \"#utility.yul\":8248:9454   */\n      swap3\n      swap2\n      pop\n      pop\n      jump\t// out\n        /* \"#utility.yul\":9460:9821   */\n    tag_35:\n        /* \"#utility.yul\":9597:9601   */\n      0x00\n        /* \"#utility.yul\":9635:9637   */\n      0x20\n        /* \"#utility.yul\":9624:9633   */\n      dup3\n        /* \"#utility.yul\":9620:9638   */\n      add\n        /* \"#utility.yul\":9612:9638   */\n      swap1\n      pop\n        /* \"#utility.yul\":9684:9693   */\n      dup2\n        /* \"#utility.yul\":9678:9682   */\n      dup2\n        /* \"#utility.yul\":9674:9694   */\n      sub\n        /* \"#utility.yul\":9670:9671   */\n      0x00\n        /* \"#utility.yul\":9659:9668   */\n      dup4\n        /* \"#utility.yul\":9655:9672   */\n      add\n        /* \"#utility.yul\":9648:9695   */\n      mstore\n        /* \"#utility.yul\":9712:9814   */\n      tag_255\n        /* \"#utility.yul\":9809:9813   */\n      dup2\n        /* \"#utility.yul\":9800:9806   */\n      dup5\n        /* \"#utility.yul\":9712:9814   */\n      tag_130\n      jump\t// in\n    tag_255:\n        /* \"#utility.yul\":9704:9814   */\n      swap1\n      pop\n        /* \"#utility.yul\":9460:9821   */\n      swap3\n      swap2\n      pop\n      pop\n      jump\t// out\n        /* \"#utility.yul\":9827:9991   */\n    tag_131:\n        /* \"#utility.yul\":9967:9983   */\n      0x496e76616c69642063686f696365000000000000000000000000000000000000\n        /* \"#utility.yul\":9963:9964   */\n      0x00\n        /* \"#utility.yul\":9955:9961   */\n      dup3\n        /* \"#utility.yul\":9951:9965   */\n      add\n        /* \"#utility.yul\":9944:9984   */\n      mstore\n        /* \"#utility.yul\":9827:9991   */\n      pop\n      jump\t// out\n        /* \"#utility.yul\":9997:10363   */\n    tag_132:\n        /* \"#utility.yul\":10139:10142   */\n      0x00\n        /* \"#utility.yul\":10160:10227   */\n      tag_258\n        /* \"#utility.yul\":10224:10226   */\n      0x0e\n        /* \"#utility.yul\":10219:10222   */\n      dup4\n        /* \"#utility.yul\":10160:10227   */\n      tag_120\n      jump\t// in\n    tag_258:\n        /* \"#utility.yul\":10153:10227   */\n      swap2\n      pop\n        /* \"#utility.yul\":10236:10329   */\n      tag_259\n        /* \"#utility.yul\":10325:10328   */\n      dup3\n        /* \"#utility.yul\":10236:10329   */\n      tag_131\n      jump\t// in\n    tag_259:\n        /* \"#utility.yul\":10354:10356   */\n      0x20\n        /* \"#utility.yul\":10349:10352   */\n      dup3\n        /* \"#utility.yul\":10345:10357   */\n      add\n        /* \"#utility.yul\":10338:10357   */\n      swap1\n      pop\n        /* \"#utility.yul\":9997:10363   */\n      swap2\n      swap1\n      pop\n      jump\t// out\n        /* \"#utility.yul\":10369:10788   */\n    tag_40:\n        /* \"#utility.yul\":10535:10539   */\n      0x00\n        /* \"#utility.yul\":10573:10575   */\n      0x20\n        /* \"#utility.yul\":10562:10571   */\n      dup3\n        /* \"#utility.yul\":10558:10576   */\n      add\n        /* \"#utility.yul\":10550:10576   */\n      swap1\n      pop\n        /* \"#utility.yul\":10622:10631   */\n      dup2\n        /* \"#utility.yul\":10616:10620   */\n      dup2\n        /* \"#utility.yul\":10612:10632   */\n      sub\n        /* \"#utility.yul\":10608:10609   */\n      0x00\n        /* \"#utility.yul\":10597:10606   */\n      dup4\n        /* \"#utility.yul\":10593:10610   */\n      add\n        /* \"#utility.yul\":10586:10633   */\n      mstore\n        /* \"#utility.yul\":10650:10781   */\n      tag_261\n        /* \"#utility.yul\":10776:10780   */\n      dup2\n        /* \"#utility.yul\":10650:10781   */\n      tag_132\n      jump\t// in\n    tag_261:\n        /* \"#utility.yul\":10642:10781   */\n      swap1\n      pop\n        /* \"#utility.yul\":10369:10788   */\n      swap2\n      swap1\n      pop\n      jump\t// out\n        /* \"#utility.yul\":10794:10958   */\n    tag_133:\n        /* \"#utility.yul\":10934:10950   */\n      0x4e6f206f70656e20766f74696e67000000000000000000000000000000000000\n        /* \"#utility.yul\":10930:10931   */\n      0x00\n        /* \"#utility.yul\":10922:10928   */\n      dup3\n        /* \"#utility.yul\":10918:10932   */\n      add\n        /* \"#utility.yul\":10911:10951   */\n      mstore\n        /* \"#utility.yul\":10794:10958   */\n      pop\n      jump\t// out\n        /* \"#utility.yul\":10964:11330   */\n    tag_134:\n        /* \"#utility.yul\":11106:11109   */\n      0x00\n        /* \"#utility.yul\":11127:11194   */\n      tag_264\n        /* \"#utility.yul\":11191:11193   */\n      0x0e\n        /* \"#utility.yul\":11186:11189   */\n      dup4\n        /* \"#utility.yul\":11127:11194   */\n      tag_120\n      jump\t// in\n    tag_264:\n        /* \"#utility.yul\":11120:11194   */\n      swap2\n      pop\n        /* \"#utility.yul\":11203:11296   */\n      tag_265\n        /* \"#utility.yul\":11292:11295   */\n      dup3\n        /* \"#utility.yul\":11203:11296   */\n      tag_133\n      jump\t// in\n    tag_265:\n        /* \"#utility.yul\":11321:11323   */\n      0x20\n        /* \"#utility.yul\":11316:11319   */\n      dup3\n        /* \"#utility.yul\":11312:11324   */\n      add\n        /* \"#utility.yul\":11305:11324   */\n      swap1\n      pop\n        /* \"#utility.yul\":10964:11330   */\n      swap2\n      swap1\n      pop\n      jump\t// out\n        /* \"#utility.yul\":11336:11755   */\n    tag_44:\n        /* \"#utility.yul\":11502:11506   */\n      0x00\n        /* \"#utility.yul\":11540:11542   */\n      0x20\n        /* \"#utility.yul\":11529:11538   */\n      dup3\n        /* \"#utility.yul\":11525:11543   */\n      add\n        /* \"#utility.yul\":11517:11543   */\n      swap1\n      pop\n        /* \"#utility.yul\":11589:11598   */\n      dup2\n        /* \"#utility.yul\":11583:11587   */\n      dup2\n        /* \"#utility.yul\":11579:11599   */\n      sub\n        /* \"#utility.yul\":11575:11576   */\n      0x00\n        /* \"#utility.yul\":11564:11573   */\n      dup4\n        /* \"#utility.yul\":11560:11577   */\n      add\n        /* \"#utility.yul\":11553:11600   */\n      mstore\n        /* \"#utility.yul\":11617:11748   */\n      tag_267\n        /* \"#utility.yul\":11743:11747   */\n      dup2\n        /* \"#utility.yul\":11617:11748   */\n      tag_134\n      jump\t// in\n    tag_267:\n        /* \"#utility.yul\":11609:11748   */\n      swap1\n      pop\n        /* \"#utility.yul\":11336:11755   */\n      swap2\n      swap1\n      pop\n      jump\t// out\n        /* \"#utility.yul\":11761:11943   */\n    tag_135:\n        /* \"#utility.yul\":11901:11935   */\n      0x596f7520616c726561647920766f746564206f6e207468697320766f74696e67\n        /* \"#utility.yul\":11897:11898   */\n      0x00\n        /* \"#utility.yul\":11889:11895   */\n      dup3\n        /* \"#utility.yul\":11885:11899   */\n      add\n        /* \"#utility.yul\":11878:11936   */\n      mstore\n        /* \"#utility.yul\":11761:11943   */\n      pop\n      jump\t// out\n        /* \"#utility.yul\":11949:12315   */\n    tag_136:\n        /* \"#utility.yul\":12091:12094   */\n      0x00\n        /* \"#utility.yul\":12112:12179   */\n      tag_270\n        /* \"#utility.yul\":12176:12178   */\n      0x20\n        /* \"#utility.yul\":12171:12174   */\n      dup4\n        /* \"#utility.yul\":12112:12179   */\n      tag_120\n      jump\t// in\n    tag_270:\n        /* \"#utility.yul\":12105:12179   */\n      swap2\n      pop\n        /* \"#utility.yul\":12188:12281   */\n      tag_271\n        /* \"#utility.yul\":12277:12280   */\n      dup3\n        /* \"#utility.yul\":12188:12281   */\n      tag_135\n      jump\t// in\n    tag_271:\n        /* \"#utility.yul\":12306:12308   */\n      0x20\n        /* \"#utility.yul\":12301:12304   */\n      dup3\n        /* \"#utility.yul\":12297:12309   */\n      add\n        /* \"#utility.yul\":12290:12309   */\n      swap1\n      pop\n        /* \"#utility.yul\":11949:12315   */\n      swap2\n      swap1\n      pop\n      jump\t// out\n        /* \"#utility.yul\":12321:12740   */\n    tag_47:\n        /* \"#utility.yul\":12487:12491   */\n      0x00\n        /* \"#utility.yul\":12525:12527   */\n      0x20\n        /* \"#utility.yul\":12514:12523   */\n      dup3\n        /* \"#utility.yul\":12510:12528   */\n      add\n        /* \"#utility.yul\":12502:12528   */\n      swap1\n      pop\n        /* \"#utility.yul\":12574:12583   */\n      dup2\n        /* \"#utility.yul\":12568:12572   */\n      dup2\n        /* \"#utility.yul\":12564:12584   */\n      sub\n        /* \"#utility.yul\":12560:12561   */\n      0x00\n        /* \"#utility.yul\":12549:12558   */\n      dup4\n        /* \"#utility.yul\":12545:12562   */\n      add\n        /* \"#utility.yul\":12538:12585   */\n      mstore\n        /* \"#utility.yul\":12602:12733   */\n      tag_273\n        /* \"#utility.yul\":12728:12732   */\n      dup2\n        /* \"#utility.yul\":12602:12733   */\n      tag_136\n      jump\t// in\n    tag_273:\n        /* \"#utility.yul\":12594:12733   */\n      swap1\n      pop\n        /* \"#utility.yul\":12321:12740   */\n      swap2\n      swap1\n      pop\n      jump\t// out\n        /* \"#utility.yul\":12746:12926   */\n    tag_51:\n        /* \"#utility.yul\":12794:12871   */\n      0x4e487b7100000000000000000000000000000000000000000000000000000000\n        /* \"#utility.yul\":12791:12792   */\n      0x00\n        /* \"#utility.yul\":12784:12872   */\n      mstore\n        /* \"#utility.yul\":12891:12895   */\n      0x32\n        /* \"#utility.yul\":12888:12889   */\n      0x04\n        /* \"#utility.yul\":12881:12896   */\n      mstore\n        /* \"#utility.yul\":12915:12919   */\n      0x24\n        /* \"#utility.yul\":12912:12913   */\n      0x00\n        /* \"#utility.yul\":12905:12920   */\n      revert\n        /* \"#utility.yul\":12932:13112   */\n    tag_137:\n        /* \"#utility.yul\":12980:13057   */\n      0x4e487b7100000000000000000000000000000000000000000000000000000000\n        /* \"#utility.yul\":12977:12978   */\n      0x00\n        /* \"#utility.yul\":12970:13058   */\n      mstore\n        /* \"#utility.yul\":13077:13081   */\n      0x11\n        /* \"#utility.yul\":13074:13075   */\n      0x04\n        /* \"#utility.yul\":13067:13082   */\n      mstore\n        /* \"#utility.yul\":13101:13105   */\n      0x24\n        /* \"#utility.yul\":13098:13099   */\n      0x00\n        /* \"#utility.yul\":13091:13106   */\n      revert\n        /* \"#utility.yul\":13118:13351   */\n    tag_54:\n        /* \"#utility.yul\":13157:13160   */\n      0x00\n        /* \"#utility.yul\":13180:13204   */\n      tag_277\n        /* \"#utility.yul\":13198:13203   */\n      dup3\n        /* \"#utility.yul\":13180:13204   */\n      tag_105\n      jump\t// in\n    tag_277:\n        /* \"#utility.yul\":13171:13204   */\n      swap2\n      pop\n        /* \"#utility.yul\":13226:13292   */\n      0xffffffffffffffffffffffffffffffffffffffffffffffffffffffffffffffff\n        /* \"#utility.yul\":13219:13224   */\n      dup3\n        /* \"#utility.yul\":13216:13293   */\n      sub\n        /* \"#utility.yul\":13213:13316   */\n      tag_278\n      jumpi\n        /* \"#utility.yul\":13296:13314   */\n      tag_279\n      tag_137\n      jump\t// in\n    tag_279:\n        /* \"#utility.yul\":13213:13316   */\n    tag_278:\n        /* \"#utility.yul\":13343:13344   */\n      0x01\n        /* \"#utility.yul\":13336:13341   */\n      dup3\n        /* \"#utility.yul\":13332:13345   */\n      add\n        /* \"#utility.yul\":13325:13345   */\n      swap1\n      pop\n        /* \"#utility.yul\":13118:13351   */\n      swap2\n      swap1\n      pop\n      jump\t// out\n        /* \"#utility.yul\":13357:13521   */\n    tag_138:\n        /* \"#utility.yul\":13497:13513   */\n      0x496e76616c69642073656e646572000000000000000000000000000000000000\n        /* \"#utility.yul\":13493:13494   */\n      0x00\n        /* \"#utility.yul\":13485:13491   */\n      dup3\n        /* \"#utility.yul\":13481:13495   */\n      add\n        /* \"#utility.yul\":13474:13514   */\n      mstore\n        /* \"#utility.yul\":13357:13521   */\n      pop\n      jump\t// out\n        /* \"#utility.yul\":13527:13893   */\n    tag_139:\n        /* \"#utility.yul\":13669:13672   */\n      0x00\n        /* \"#utility.yul\":13690:13757   */\n      tag_282\n        /* \"#utility.yul\":13754:13756   */\n      0x0e\n        /* \"#utility.yul\":13749:13752   */\n      dup4\n        /* \"#utility.yul\":13690:13757   */\n      tag_120\n      jump\t// in\n    tag_282:\n        /* \"#utility.yul\":13683:13757   */\n      swap2\n      pop\n        /* \"#utility.yul\":13766:13859   */\n      tag_283\n        /* \"#utility.yul\":13855:13858   */\n      dup3\n        /* \"#utility.yul\":13766:13859   */\n      tag_138\n      jump\t// in\n    tag_283:\n        /* \"#utility.yul\":13884:13886   */\n      0x20\n        /* \"#utility.yul\":13879:13882   */\n      dup3\n        /* \"#utility.yul\":13875:13887   */\n      add\n        /* \"#utility.yul\":13868:13887   */\n      swap1\n      pop\n        /* \"#utility.yul\":13527:13893   */\n      swap2\n      swap1\n      pop\n      jump\t// out\n        /* \"#utility.yul\":13899:14318   */\n    tag_63:\n        /* \"#utility.yul\":14065:14069   */\n      0x00\n        /* \"#utility.yul\":14103:14105   */\n      0x20\n        /* \"#utility.yul\":14092:14101   */\n      dup3\n        /* \"#utility.yul\":14088:14106   */\n      add\n        /* \"#utility.yul\":14080:14106   */\n      swap1\n      pop\n        /* \"#utility.yul\":14152:14161   */\n      dup2\n        /* \"#utility.yul\":14146:14150   */\n      dup2\n        /* \"#utility.yul\":14142:14162   */\n      sub\n        /* \"#utility.yul\":14138:14139   */\n      0x00\n        /* \"#utility.yul\":14127:14136   */\n      dup4\n        /* \"#utility.yul\":14123:14140   */\n      add\n        /* \"#utility.yul\":14116:14163   */\n      mstore\n        /* \"#utility.yul\":14180:14311   */\n      tag_285\n        /* \"#utility.yul\":14306:14310   */\n      dup2\n        /* \"#utility.yul\":14180:14311   */\n      tag_139\n      jump\t// in\n    tag_285:\n        /* \"#utility.yul\":14172:14311   */\n      swap1\n      pop\n        /* \"#utility.yul\":13899:14318   */\n      swap2\n      swap1\n      pop\n      jump\t// out\n        /* \"#utility.yul\":14324:14515   */\n    tag_69:\n        /* \"#utility.yul\":14364:14367   */\n      0x00\n        /* \"#utility.yul\":14383:14403   */\n      tag_287\n        /* \"#utility.yul\":14401:14402   */\n      dup3\n        /* \"#utility.yul\":14383:14403   */\n      tag_105\n      jump\t// in\n    tag_287:\n        /* \"#utility.yul\":14378:14403   */\n      swap2\n      pop\n        /* \"#utility.yul\":14417:14437   */\n      tag_288\n        /* \"#utility.yul\":14435:14436   */\n      dup4\n        /* \"#utility.yul\":14417:14437   */\n      tag_105\n      jump\t// in\n    tag_288:\n        /* \"#utility.yul\":14412:14437   */\n      swap3\n      pop\n        /* \"#utility.yul\":14460:14461   */\n      dup3\n        /* \"#utility.yul\":14457:14458   */\n      dup3\n        /* \"#utility.yul\":14453:14462   */\n      add\n        /* \"#utility.yul\":14446:14462   */\n      swap1\n      pop\n        /* \"#utility.yul\":14481:14484   */\n      dup1\n        /* \"#utility.yul\":14478:14479   */\n      dup3\n        /* \"#utility.yul\":14475:14485   */\n      gt\n        /* \"#utility.yul\":14472:14508   */\n      iszero\n      tag_289\n      jumpi\n        /* \"#utility.yul\":14488:14506   */\n      tag_290\n      tag_137\n      jump\t// in\n    tag_290:\n        /* \"#utility.yul\":14472:14508   */\n    tag_289:\n        /* \"#utility.yul\":14324:14515   */\n      swap3\n      swap2\n      pop\n      pop\n      jump\t// out\n        /* \"#utility.yul\":14521:14701   */\n    tag_140:\n        /* \"#utility.yul\":14569:14646   */\n      0x4e487b7100000000000000000000000000000000000000000000000000000000\n        /* \"#utility.yul\":14566:14567   */\n      0x00\n        /* \"#utility.yul\":14559:14647   */\n      mstore\n        /* \"#utility.yul\":14666:14670   */\n      0x22\n        /* \"#utility.yul\":14663:14664   */\n      0x04\n        /* \"#utility.yul\":14656:14671   */\n      mstore\n        /* \"#utility.yul\":14690:14694   */\n      0x24\n        /* \"#utility.yul\":14687:14688   */\n      0x00\n        /* \"#utility.yul\":14680:14695   */\n      revert\n        /* \"#utility.yul\":14707:15027   */\n    tag_77:\n        /* \"#utility.yul\":14751:14757   */\n      0x00\n        /* \"#utility.yul\":14788:14789   */\n      0x02\n        /* \"#utility.yul\":14782:14786   */\n      dup3\n        /* \"#utility.yul\":14778:14790   */\n      div\n        /* \"#utility.yul\":14768:14790   */\n      swap1\n      pop\n        /* \"#utility.yul\":14835:14836   */\n      0x01\n        /* \"#utility.yul\":14829:14833   */\n      dup3\n        /* \"#utility.yul\":14825:14837   */\n      and\n        /* \"#utility.yul\":14856:14874   */\n      dup1\n        /* \"#utility.yul\":14846:14927   */\n      tag_293\n      jumpi\n        /* \"#utility.yul\":14912:14916   */\n      0x7f\n        /* \"#utility.yul\":14904:14910   */\n      dup3\n        /* \"#utility.yul\":14900:14917   */\n      and\n        /* \"#utility.yul\":14890:14917   */\n      swap2\n      pop\n        /* \"#utility.yul\":14846:14927   */\n    tag_293:\n        /* \"#utility.yul\":14974:14976   */\n      0x20\n        /* \"#utility.yul\":14966:14972   */\n      dup3\n        /* \"#utility.yul\":14963:14977   */\n      lt\n        /* \"#utility.yul\":14943:14961   */\n      dup2\n        /* \"#utility.yul\":14940:14978   */\n      sub\n        /* \"#utility.yul\":14937:15021   */\n      tag_294\n      jumpi\n        /* \"#utility.yul\":14993:15011   */\n      tag_295\n      tag_140\n      jump\t// in\n    tag_295:\n        /* \"#utility.yul\":14937:15021   */\n    tag_294:\n        /* \"#utility.yul\":14758:15027   */\n      pop\n        /* \"#utility.yul\":14707:15027   */\n      swap2\n      swap1\n      pop\n      jump\t// out\n        /* \"#utility.yul\":15033:15174   */\n    tag_141:\n        /* \"#utility.yul\":15082:15086   */\n      0x00\n        /* \"#utility.yul\":15105:15108   */\n      dup2\n        /* \"#utility.yul\":15097:15108   */\n      swap1\n      pop\n        /* \"#utility.yul\":15128:15131   */\n      dup2\n        /* \"#utility.yul\":15125:15126   */\n      0x00\n        /* \"#utility.yul\":15118:15132   */\n      mstore\n        /* \"#utility.yul\":15162:15166   */\n      0x20\n        /* \"#utility.yul\":15159:15160   */\n      0x00\n        /* \"#utility.yul\":15149:15167   */\n      keccak256\n        /* \"#utility.yul\":15141:15167   */\n      swap1\n      pop\n        /* \"#utility.yul\":15033:15174   */\n      swap2\n      swap1\n      pop\n      jump\t// out\n        /* \"#utility.yul\":15180:15273   */\n    tag_142:\n        /* \"#utility.yul\":15217:15223   */\n      0x00\n        /* \"#utility.yul\":15264:15266   */\n      0x20\n        /* \"#utility.yul\":15259:15261   */\n      0x1f\n        /* \"#utility.yul\":15252:15257   */\n      dup4\n        /* \"#utility.yul\":15248:15262   */\n      add\n        /* \"#utility.yul\":15244:15267   */\n      div\n        /* \"#utility.yul\":15234:15267   */\n      swap1\n      pop\n        /* \"#utility.yul\":15180:15273   */\n      swap2\n      swap1\n      pop\n      jump\t// out\n        /* \"#utility.yul\":15279:15386   */\n    tag_143:\n        /* \"#utility.yul\":15323:15331   */\n      0x00\n        /* \"#utility.yul\":15373:15378   */\n      dup3\n        /* \"#utility.yul\":15367:15371   */\n      dup3\n        /* \"#utility.yul\":15363:15379   */\n      shl\n        /* \"#utility.yul\":15342:15379   */\n      swap1\n      pop\n        /* \"#utility.yul\":15279:15386   */\n      swap3\n      swap2\n      pop\n      pop\n      jump\t// out\n        /* \"#utility.yul\":15392:15785   */\n    tag_144:\n        /* \"#utility.yul\":15461:15467   */\n      0x00\n        /* \"#utility.yul\":15511:15512   */\n      0x08\n        /* \"#utility.yul\":15499:15509   */\n      dup4\n        /* \"#utility.yul\":15495:15513   */\n      mul\n        /* \"#utility.yul\":15534:15631   */\n      tag_300\n        /* \"#utility.yul\":15564:15630   */\n      0xffffffffffffffffffffffffffffffffffffffffffffffffffffffffffffffff\n        /* \"#utility.yul\":15553:15562   */\n      dup3\n        /* \"#utility.yul\":15534:15631   */\n      tag_143\n      jump\t// in\n    tag_300:\n        /* \"#utility.yul\":15652:15691   */\n      tag_301\n        /* \"#utility.yul\":15682:15690   */\n      dup7\n        /* \"#utility.yul\":15671:15680   */\n      dup4\n        /* \"#utility.yul\":15652:15691   */\n      tag_143\n      jump\t// in\n    tag_301:\n        /* \"#utility.yul\":15640:15691   */\n      swap6\n      pop\n        /* \"#utility.yul\":15724:15728   */\n      dup1\n        /* \"#utility.yul\":15720:15729   */\n      not\n        /* \"#utility.yul\":15713:15718   */\n      dup5\n        /* \"#utility.yul\":15709:15730   */\n      and\n        /* \"#utility.yul\":15700:15730   */\n      swap4\n      pop\n        /* \"#utility.yul\":15773:15777   */\n      dup1\n        /* \"#utility.yul\":15763:15771   */\n      dup7\n        /* \"#utility.yul\":15759:15778   */\n      and\n        /* \"#utility.yul\":15752:15757   */\n      dup5\n        /* \"#utility.yul\":15749:15779   */\n      or\n        /* \"#utility.yul\":15739:15779   */\n      swap3\n      pop\n        /* \"#utility.yul\":15468:15785   */\n      pop\n      pop\n        /* \"#utility.yul\":15392:15785   */\n      swap4\n      swap3\n      pop\n      pop\n      pop\n      jump\t// out\n        /* \"#utility.yul\":15791:15851   */\n    tag_145:\n        /* \"#utility.yul\":15819:15822   */\n      0x00\n        /* \"#utility.yul\":15840:15845   */\n      dup2\n        /* \"#utility.yul\":15833:15845   */\n      swap1\n      pop\n        /* \"#utility.yul\":15791:15851   */\n      swap2\n      swap1\n      pop\n      jump\t// out\n        /* \"#utility.yul\":15857:15999   */\n    tag_146:\n        /* \"#utility.yul\":15907:15916   */\n      0x00\n        /* \"#utility.yul\":15940:15993   */\n      tag_304\n        /* \"#utility.yul\":15958:15992   */\n      tag_305\n        /* \"#utility.yul\":15967:15991   */\n      tag_306\n        /* \"#utility.yul\":15985:15990   */\n      dup5\n        /* \"#utility.yul\":15967:15991   */\n      tag_105\n      jump\t// in\n    tag_306:\n        /* \"#utility.yul\":15958:15992   */\n      tag_145\n      jump\t// in\n    tag_305:\n        /* \"#utility.yul\":15940:15993   */\n      tag_105\n      jump\t// in\n    tag_304:\n        /* \"#utility.yul\":15927:15993   */\n      swap1\n      pop\n        /* \"#utility.yul\":15857:15999   */\n      swap2\n      swap1\n      pop\n      jump\t// out\n        /* \"#utility.yul\":16005:16080   */\n    tag_147:\n        /* \"#utility.yul\":16048:16051   */\n      0x00\n        /* \"#utility.yul\":16069:16074   */\n      dup2\n        /* \"#utility.yul\":16062:16074   */\n      swap1\n      pop\n        /* \"#utility.yul\":16005:16080   */\n      swap2\n      swap1\n      pop\n      jump\t// out\n        /* \"#utility.yul\":16086:16355   */\n    tag_148:\n        /* \"#utility.yul\":16196:16235   */\n      tag_309\n        /* \"#utility.yul\":16227:16234   */\n      dup4\n        /* \"#utility.yul\":16196:16235   */\n      tag_146\n      jump\t// in\n    tag_309:\n        /* \"#utility.yul\":16257:16348   */\n      tag_310\n        /* \"#utility.yul\":16306:16347   */\n      tag_311\n        /* \"#utility.yul\":16330:16346   */\n      dup3\n        /* \"#utility.yul\":16306:16347   */\n      tag_147\n      jump\t// in\n    tag_311:\n        /* \"#utility.yul\":16298:16304   */\n      dup5\n        /* \"#utility.yul\":16291:16295   */\n      dup5\n        /* \"#utility.yul\":16285:16296   */\n      sload\n        /* \"#utility.yul\":16257:16348   */\n      tag_144\n      jump\t// in\n    tag_310:\n        /* \"#utility.yul\":16251:16255   */\n      dup3\n        /* \"#utility.yul\":16244:16349   */\n      sstore\n        /* \"#utility.yul\":16162:16355   */\n      pop\n        /* \"#utility.yul\":16086:16355   */\n      pop\n      pop\n      pop\n      jump\t// out\n        /* \"#utility.yul\":16361:16434   */\n    tag_149:\n        /* \"#utility.yul\":16406:16409   */\n      0x00\n        /* \"#utility.yul\":16427:16428   */\n      0x00\n        /* \"#utility.yul\":16420:16428   */\n      swap1\n      pop\n        /* \"#utility.yul\":16361:16434   */\n      swap1\n      jump\t// out\n        /* \"#utility.yul\":16440:16629   */\n    tag_150:\n        /* \"#utility.yul\":16517:16549   */\n      tag_314\n      tag_149\n      jump\t// in\n    tag_314:\n        /* \"#utility.yul\":16558:16623   */\n      tag_315\n        /* \"#utility.yul\":16616:16622   */\n      dup2\n        /* \"#utility.yul\":16608:16614   */\n      dup5\n        /* \"#utility.yul\":16602:16606   */\n      dup5\n        /* \"#utility.yul\":16558:16623   */\n      tag_148\n      jump\t// in\n    tag_315:\n        /* \"#utility.yul\":16493:16629   */\n      pop\n        /* \"#utility.yul\":16440:16629   */\n      pop\n      pop\n      jump\t// out\n        /* \"#utility.yul\":16635:16821   */\n    tag_151:\n        /* \"#utility.yul\":16695:16815   */\n    tag_317:\n        /* \"#utility.yul\":16712:16715   */\n      dup2\n        /* \"#utility.yul\":16705:16710   */\n      dup2\n        /* \"#utility.yul\":16702:16716   */\n      lt\n        /* \"#utility.yul\":16695:16815   */\n      iszero\n      tag_319\n      jumpi\n        /* \"#utility.yul\":16766:16805   */\n      tag_320\n        /* \"#utility.yul\":16803:16804   */\n      0x00\n        /* \"#utility.yul\":16796:16801   */\n      dup3\n        /* \"#utility.yul\":16766:16805   */\n      tag_150\n      jump\t// in\n    tag_320:\n        /* \"#utility.yul\":16739:16740   */\n      0x01\n        /* \"#utility.yul\":16732:16737   */\n      dup2\n        /* \"#utility.yul\":16728:16741   */\n      add\n        /* \"#utility.yul\":16719:16741   */\n      swap1\n      pop\n        /* \"#utility.yul\":16695:16815   */\n      jump(tag_317)\n    tag_319:\n        /* \"#utility.yul\":16635:16821   */\n      pop\n      pop\n      jump\t// out\n        /* \"#utility.yul\":16827:17370   */\n    tag_152:\n        /* \"#utility.yul\":16928:16930   */\n      0x1f\n        /* \"#utility.yul\":16923:16926   */\n      dup3\n        /* \"#utility.yul\":16920:16931   */\n      gt\n        /* \"#utility.yul\":16917:17363   */\n      iszero\n      tag_322\n      jumpi\n        /* \"#utility.yul\":16962:17000   */\n      tag_323\n        /* \"#utility.yul\":16994:16999   */\n      dup2\n        /* \"#utility.yul\":16962:17000   */\n      tag_141\n      jump\t// in\n    tag_323:\n        /* \"#utility.yul\":17046:17075   */\n      tag_324\n        /* \"#utility.yul\":17064:17074   */\n      dup5\n        /* \"#utility.yul\":17046:17075   */\n      tag_142\n      jump\t// in\n    tag_324:\n        /* \"#utility.yul\":17036:17044   */\n      dup2\n        /* \"#utility.yul\":17032:17076   */\n      add\n        /* \"#utility.yul\":17229:17231   */\n      0x20\n        /* \"#utility.yul\":17217:17227   */\n      dup6\n        /* \"#utility.yul\":17214:17232   */\n      lt\n        /* \"#utility.yul\":17211:17260   */\n      iszero\n      tag_325\n      jumpi\n        /* \"#utility.yul\":17250:17258   */\n      dup2\n        /* \"#utility.yul\":17235:17258   */\n      swap1\n      pop\n        /* \"#utility.yul\":17211:17260   */\n    tag_325:\n        /* \"#utility.yul\":17273:17353   */\n      tag_326\n        /* \"#utility.yul\":17329:17351   */\n      tag_327\n        /* \"#utility.yul\":17347:17350   */\n      dup6\n        /* \"#utility.yul\":17329:17351   */\n      tag_142\n      jump\t// in\n    tag_327:\n        /* \"#utility.yul\":17319:17327   */\n      dup4\n        /* \"#utility.yul\":17315:17352   */\n      add\n        /* \"#utility.yul\":17302:17313   */\n      dup3\n        /* \"#utility.yul\":17273:17353   */\n      tag_151\n      jump\t// in\n    tag_326:\n        /* \"#utility.yul\":16932:17363   */\n      pop\n      pop\n        /* \"#utility.yul\":16917:17363   */\n    tag_322:\n        /* \"#utility.yul\":16827:17370   */\n      pop\n      pop\n      pop\n      jump\t// out\n        /* \"#utility.yul\":17376:17493   */\n    tag_153:\n        /* \"#utility.yul\":17430:17438   */\n      0x00\n        /* \"#utility.yul\":17480:17485   */\n      dup3\n        /* \"#utility.yul\":17474:17478   */\n      dup3\n        /* \"#utility.yul\":17470:17486   */\n      shr\n        /* \"#utility.yul\":17449:17486   */\n      swap1\n      pop\n        /* \"#utility.yul\":17376:17493   */\n      swap3\n      swap2\n      pop\n      pop\n      jump\t// out\n        /* \"#utility.yul\":17499:17668   */\n    tag_154:\n        /* \"#utility.yul\":17543:17549   */\n      0x00\n        /* \"#utility.yul\":17576:17627   */\n      tag_330\n        /* \"#utility.yul\":17624:17625   */\n      0x00\n        /* \"#utility.yul\":17620:17626   */\n      not\n        /* \"#utility.yul\":17612:17617   */\n      dup5\n        /* \"#utility.yul\":17609:17610   */\n      0x08\n        /* \"#utility.yul\":17605:17618   */\n      mul\n        /* \"#utility.yul\":17576:17627   */\n      tag_153\n      jump\t// in\n    tag_330:\n        /* \"#utility.yul\":17572:17628   */\n      not\n        /* \"#utility.yul\":17657:17661   */\n      dup1\n        /* \"#utility.yul\":17651:17655   */\n      dup4\n        /* \"#utility.yul\":17647:17662   */\n      and\n        /* \"#utility.yul\":17637:17662   */\n      swap2\n      pop\n        /* \"#utility.yul\":17550:17668   */\n      pop\n        /* \"#utility.yul\":17499:17668   */\n      swap3\n      swap2\n      pop\n      pop\n      jump\t// out\n        /* \"#utility.yul\":17673:17968   */\n    tag_155:\n        /* \"#utility.yul\":17749:17753   */\n      0x00\n        /* \"#utility.yul\":17895:17924   */\n      tag_332\n        /* \"#utility.yul\":17920:17923   */\n      dup4\n        /* \"#utility.yul\":17914:17918   */\n      dup4\n        /* \"#utility.yul\":17895:17924   */\n      tag_154\n      jump\t// in\n    tag_332:\n        /* \"#utility.yul\":17887:17924   */\n      swap2\n      pop\n        /* \"#utility.yul\":17957:17960   */\n      dup3\n        /* \"#utility.yul\":17954:17955   */\n      0x02\n        /* \"#utility.yul\":17950:17961   */\n      mul\n        /* \"#utility.yul\":17944:17948   */\n      dup3\n        /* \"#utility.yul\":17941:17962   */\n      or\n        /* \"#utility.yul\":17933:17962   */\n      swap1\n      pop\n        /* \"#utility.yul\":17673:17968   */\n      swap3\n      swap2\n      pop\n      pop\n      jump\t// out\n        /* \"#utility.yul\":17973:19368   */\n    tag_72:\n        /* \"#utility.yul\":18090:18127   */\n      tag_334\n        /* \"#utility.yul\":18123:18126   */\n      dup3\n        /* \"#utility.yul\":18090:18127   */\n      tag_119\n      jump\t// in\n    tag_334:\n        /* \"#utility.yul\":18192:18210   */\n      0xffffffffffffffff\n        /* \"#utility.yul\":18184:18190   */\n      dup2\n        /* \"#utility.yul\":18181:18211   */\n      gt\n        /* \"#utility.yul\":18178:18234   */\n      iszero\n      tag_335\n      jumpi\n        /* \"#utility.yul\":18214:18232   */\n      tag_336\n      tag_112\n      jump\t// in\n    tag_336:\n        /* \"#utility.yul\":18178:18234   */\n    tag_335:\n        /* \"#utility.yul\":18258:18296   */\n      tag_337\n        /* \"#utility.yul\":18290:18294   */\n      dup3\n        /* \"#utility.yul\":18284:18295   */\n      sload\n        /* \"#utility.yul\":18258:18296   */\n      tag_77\n      jump\t// in\n    tag_337:\n        /* \"#utility.yul\":18343:18410   */\n      tag_338\n        /* \"#utility.yul\":18403:18409   */\n      dup3\n        /* \"#utility.yul\":18395:18401   */\n      dup3\n        /* \"#utility.yul\":18389:18393   */\n      dup6\n        /* \"#utility.yul\":18343:18410   */\n      tag_152\n      jump\t// in\n    tag_338:\n        /* \"#utility.yul\":18437:18438   */\n      0x00\n        /* \"#utility.yul\":18461:18465   */\n      0x20\n        /* \"#utility.yul\":18448:18465   */\n      swap1\n      pop\n        /* \"#utility.yul\":18493:18495   */\n      0x1f\n        /* \"#utility.yul\":18485:18491   */\n      dup4\n        /* \"#utility.yul\":18482:18496   */\n      gt\n        /* \"#utility.yul\":18510:18511   */\n      0x01\n        /* \"#utility.yul\":18505:19123   */\n      dup2\n      eq\n      tag_340\n      jumpi\n        /* \"#utility.yul\":19167:19168   */\n      0x00\n        /* \"#utility.yul\":19184:19190   */\n      dup5\n        /* \"#utility.yul\":19181:19258   */\n      iszero\n      tag_341\n      jumpi\n        /* \"#utility.yul\":19233:19242   */\n      dup3\n        /* \"#utility.yul\":19228:19231   */\n      dup8\n        /* \"#utility.yul\":19224:19243   */\n      add\n        /* \"#utility.yul\":19218:19244   */\n      mload\n        /* \"#utility.yul\":19209:19244   */\n      swap1\n      pop\n        /* \"#utility.yul\":19181:19258   */\n    tag_341:\n        /* \"#utility.yul\":19284:19351   */\n      tag_342\n        /* \"#utility.yul\":19344:19350   */\n      dup6\n        /* \"#utility.yul\":19337:19342   */\n      dup3\n        /* \"#utility.yul\":19284:19351   */\n      tag_155\n      jump\t// in\n    tag_342:\n        /* \"#utility.yul\":19278:19282   */\n      dup7\n        /* \"#utility.yul\":19271:19352   */\n      sstore\n        /* \"#utility.yul\":19140:19362   */\n      pop\n        /* \"#utility.yul\":18475:19362   */\n      jump(tag_339)\n        /* \"#utility.yul\":18505:19123   */\n    tag_340:\n        /* \"#utility.yul\":18557:18561   */\n      0x1f\n        /* \"#utility.yul\":18553:18562   */\n      not\n        /* \"#utility.yul\":18545:18551   */\n      dup5\n        /* \"#utility.yul\":18541:18563   */\n      and\n        /* \"#utility.yul\":18591:18628   */\n      tag_343\n        /* \"#utility.yul\":18623:18627   */\n      dup7\n        /* \"#utility.yul\":18591:18628   */\n      tag_141\n      jump\t// in\n    tag_343:\n        /* \"#utility.yul\":18650:18651   */\n      0x00\n        /* \"#utility.yul\":18664:18872   */\n    tag_344:\n        /* \"#utility.yul\":18678:18685   */\n      dup3\n        /* \"#utility.yul\":18675:18676   */\n      dup2\n        /* \"#utility.yul\":18672:18686   */\n      lt\n        /* \"#utility.yul\":18664:18872   */\n      iszero\n      tag_346\n      jumpi\n        /* \"#utility.yul\":18757:18766   */\n      dup5\n        /* \"#utility.yul\":18752:18755   */\n      dup10\n        /* \"#utility.yul\":18748:18767   */\n      add\n        /* \"#utility.yul\":18742:18768   */\n      mload\n        /* \"#utility.yul\":18734:18740   */\n      dup3\n        /* \"#utility.yul\":18727:18769   */\n      sstore\n        /* \"#utility.yul\":18808:18809   */\n      0x01\n        /* \"#utility.yul\":18800:18806   */\n      dup3\n        /* \"#utility.yul\":18796:18810   */\n      add\n        /* \"#utility.yul\":18786:18810   */\n      swap2\n      pop\n        /* \"#utility.yul\":18855:18857   */\n      0x20\n        /* \"#utility.yul\":18844:18853   */\n      dup6\n        /* \"#utility.yul\":18840:18858   */\n      add\n        /* \"#utility.yul\":18827:18858   */\n      swap5\n      pop\n        /* \"#utility.yul\":18701:18705   */\n      0x20\n        /* \"#utility.yul\":18698:18699   */\n      dup2\n        /* \"#utility.yul\":18694:18706   */\n      add\n        /* \"#utility.yul\":18689:18706   */\n      swap1\n      pop\n        /* \"#utility.yul\":18664:18872   */\n      jump(tag_344)\n    tag_346:\n        /* \"#utility.yul\":18900:18906   */\n      dup7\n        /* \"#utility.yul\":18891:18898   */\n      dup4\n        /* \"#utility.yul\":18888:18907   */\n      lt\n        /* \"#utility.yul\":18885:19064   */\n      iszero\n      tag_347\n      jumpi\n        /* \"#utility.yul\":18958:18967   */\n      dup5\n        /* \"#utility.yul\":18953:18956   */\n      dup10\n        /* \"#utility.yul\":18949:18968   */\n      add\n        /* \"#utility.yul\":18943:18969   */\n      mload\n        /* \"#utility.yul\":19001:19049   */\n      tag_348\n        /* \"#utility.yul\":19043:19047   */\n      0x1f\n        /* \"#utility.yul\":19035:19041   */\n      dup10\n        /* \"#utility.yul\":19031:19048   */\n      and\n        /* \"#utility.yul\":19020:19029   */\n      dup3\n        /* \"#utility.yul\":19001:19049   */\n      tag_154\n      jump\t// in\n    tag_348:\n        /* \"#utility.yul\":18993:18999   */\n      dup4\n        /* \"#utility.yul\":18986:19050   */\n      sstore\n        /* \"#utility.yul\":18908:19064   */\n      pop\n        /* \"#utility.yul\":18885:19064   */\n    tag_347:\n        /* \"#utility.yul\":19110:19111   */\n      0x01\n        /* \"#utility.yul\":19106:19107   */\n      0x02\n        /* \"#utility.yul\":19098:19104   */\n      dup9\n        /* \"#utility.yul\":19094:19108   */\n      mul\n        /* \"#utility.yul\":19090:19112   */\n      add\n        /* \"#utility.yul\":19084:19088   */\n      dup9\n        /* \"#utility.yul\":19077:19113   */\n      sstore\n        /* \"#utility.yul\":18512:19123   */\n      pop\n      pop\n      pop\n        /* \"#utility.yul\":18475:19362   */\n    tag_339:\n      pop\n        /* \"#utility.yul\":18065:19368   */\n      pop\n      pop\n      pop\n        /* \"#utility.yul\":17973:19368   */\n      pop\n      pop\n      jump\t// out\n\n    auxdata: 0xa2646970667358221220e155029f582f1b56a24e6f329ad57392c02e1b4e5eb2d2d34e51596af69404f764736f6c634300081f0033\n}\n",
				"bytecode": {
					"linkReferences": {},
					"object": "60806040525f6001553480156012575f5ffd5b50335f5f6101000a81548173ffffffffffffffffffffffffffffffffffffffff021916908373ffffffffffffffffffffffffffffffffffffffff1602179055506112558061005f5f395ff3fe608060405234801561000f575f5ffd5b5060043610610060575f3560e01c80630383badc146100645780631c7bec9d1461008057806355f9b1ec1461009e578063a598d03c146100ba578063d23254b4146100ee578063f1156cdf1461011f575b5f5ffd5b61007e60048036038101906100799190610859565b61013d565b005b61008861039b565b6040516100959190610893565b60405180910390f35b6100b860048036038101906100b391906109e8565b6103a1565b005b6100d460048036038101906100cf9190610859565b6104fa565b6040516100e5959493929190610ad0565b60405180910390f35b61010860048036038101906101039190610b89565b610647565b604051610116929190610bc7565b60405180910390f35b610127610672565b6040516101349190610cbf565b60405180910390f35b600181148061014c5750600281145b61018b576040517f08c379a000000000000000000000000000000000000000000000000000000000815260040161018290610d29565b60405180910390fd5b42610194610672565b60800151116101d8576040517f08c379a00000000000000000000000000000000000000000000000000000000081526004016101cf90610d91565b60405180910390fd5b5f60035f60015481526020019081526020015f205f3373ffffffffffffffffffffffffffffffffffffffff1673ffffffffffffffffffffffffffffffffffffffff1681526020019081526020015f20600101541461026b576040517f08c379a000000000000000000000000000000000000000000000000000000000815260040161026290610df9565b60405180910390fd5b8060035f60015481526020019081526020015f205f3373ffffffffffffffffffffffffffffffffffffffff1673ffffffffffffffffffffffffffffffffffffffff1681526020019081526020015f205f01819055504260035f60015481526020019081526020015f205f3373ffffffffffffffffffffffffffffffffffffffff1673ffffffffffffffffffffffffffffffffffffffff1681526020019081526020015f20600101819055506001810361035d5760026001548154811061033457610333610e17565b5b905f5260205f2090600502016001015f81548092919061035390610e71565b9190505550610398565b60026001548154811061037357610372610e17565b5b905f5260205f2090600502016003015f81548092919061039290610e71565b91905055505b50565b60015481565b5f5f9054906101000a900473ffffffffffffffffffffffffffffffffffffffff1673ffffffffffffffffffffffffffffffffffffffff163373ffffffffffffffffffffffffffffffffffffffff161461042f576040517f08c379a000000000000000000000000000000000000000000000000000000000815260040161042690610f02565b60405180910390fd5b5f600280549050146104535760015f81548092919061044d90610e71565b91905055505b61045b6107e9565b83815f018190525082816040018190525042826104789190610f20565b816080018181525050600281908060018154018082558091505060019003905f5260205f2090600502015f909190919091505f820151815f0190816104bd9190611150565b506020820151816001015560408201518160020190816104dd9190611150565b506060820151816003015560808201518160040155505050505050565b60028181548110610509575f80fd5b905f5260205f2090600502015f91509050805f01805461052890610f80565b80601f016020809104026020016040519081016040528092919081815260200182805461055490610f80565b801561059f5780601f106105765761010080835404028352916020019161059f565b820191905f5260205f20905b81548152906001019060200180831161058257829003601f168201915b5050505050908060010154908060020180546105ba90610f80565b80601f01602080910402602001604051908101604052809291908181526020018280546105e690610f80565b80156106315780601f1061060857610100808354040283529160200191610631565b820191905f5260205f20905b81548152906001019060200180831161061457829003601f168201915b5050505050908060030154908060040154905085565b6003602052815f5260405f20602052805f5260405f205f9150915050805f0154908060010154905082565b61067a6107e9565b6002600154815481106106905761068f610e17565b5b905f5260205f2090600502016040518060a00160405290815f820180546106b690610f80565b80601f01602080910402602001604051908101604052809291908181526020018280546106e290610f80565b801561072d5780601f106107045761010080835404028352916020019161072d565b820191905f5260205f20905b81548152906001019060200180831161071057829003601f168201915b505050505081526020016001820154815260200160028201805461075090610f80565b80601f016020809104026020016040519081016040528092919081815260200182805461077c90610f80565b80156107c75780601f1061079e576101008083540402835291602001916107c7565b820191905f5260205f20905b8154815290600101906020018083116107aa57829003601f168201915b5050505050815260200160038201548152602001600482015481525050905090565b6040518060a00160405280606081526020015f8152602001606081526020015f81526020015f81525090565b5f604051905090565b5f5ffd5b5f5ffd5b5f819050919050565b61083881610826565b8114610842575f5ffd5b50565b5f813590506108538161082f565b92915050565b5f6020828403121561086e5761086d61081e565b5b5f61087b84828501610845565b91505092915050565b61088d81610826565b82525050565b5f6020820190506108a65f830184610884565b92915050565b5f5ffd5b5f5ffd5b5f601f19601f8301169050919050565b7f4e487b71000000000000000000000000000000000000000000000000000000005f52604160045260245ffd5b6108fa826108b4565b810181811067ffffffffffffffff82111715610919576109186108c4565b5b80604052505050565b5f61092b610815565b905061093782826108f1565b919050565b5f67ffffffffffffffff821115610956576109556108c4565b5b61095f826108b4565b9050602081019050919050565b828183375f83830152505050565b5f61098c6109878461093c565b610922565b9050828152602081018484840111156109a8576109a76108b0565b5b6109b384828561096c565b509392505050565b5f82601f8301126109cf576109ce6108ac565b5b81356109df84826020860161097a565b91505092915050565b5f5f5f606084860312156109ff576109fe61081e565b5b5f84013567ffffffffffffffff811115610a1c57610a1b610822565b5b610a28868287016109bb565b935050602084013567ffffffffffffffff811115610a4957610a48610822565b5b610a55868287016109bb565b9250506040610a6686828701610845565b9150509250925092565b5f81519050919050565b5f82825260208201905092915050565b8281835e5f83830152505050565b5f610aa282610a70565b610aac8185610a7a565b9350610abc818560208601610a8a565b610ac5816108b4565b840191505092915050565b5f60a0820190508181035f830152610ae88188610a98565b9050610af76020830187610884565b8181036040830152610b098186610a98565b9050610b186060830185610884565b610b256080830184610884565b9695505050505050565b5f73ffffffffffffffffffffffffffffffffffffffff82169050919050565b5f610b5882610b2f565b9050919050565b610b6881610b4e565b8114610b72575f5ffd5b50565b5f81359050610b8381610b5f565b92915050565b5f5f60408385031215610b9f57610b9e61081e565b5b5f610bac85828601610845565b9250506020610bbd85828601610b75565b9150509250929050565b5f604082019050610bda5f830185610884565b610be76020830184610884565b9392505050565b5f82825260208201905092915050565b5f610c0882610a70565b610c128185610bee565b9350610c22818560208601610a8a565b610c2b816108b4565b840191505092915050565b610c3f81610826565b82525050565b5f60a083015f8301518482035f860152610c5f8282610bfe565b9150506020830151610c746020860182610c36565b5060408301518482036040860152610c8c8282610bfe565b9150506060830151610ca16060860182610c36565b506080830151610cb46080860182610c36565b508091505092915050565b5f6020820190508181035f830152610cd78184610c45565b905092915050565b7f496e76616c69642063686f6963650000000000000000000000000000000000005f82015250565b5f610d13600e83610a7a565b9150610d1e82610cdf565b602082019050919050565b5f6020820190508181035f830152610d4081610d07565b9050919050565b7f4e6f206f70656e20766f74696e670000000000000000000000000000000000005f82015250565b5f610d7b600e83610a7a565b9150610d8682610d47565b602082019050919050565b5f6020820190508181035f830152610da881610d6f565b9050919050565b7f596f7520616c726561647920766f746564206f6e207468697320766f74696e675f82015250565b5f610de3602083610a7a565b9150610dee82610daf565b602082019050919050565b5f6020820190508181035f830152610e1081610dd7565b9050919050565b7f4e487b71000000000000000000000000000000000000000000000000000000005f52603260045260245ffd5b7f4e487b71000000000000000000000000000000000000000000000000000000005f52601160045260245ffd5b5f610e7b82610826565b91507fffffffffffffffffffffffffffffffffffffffffffffffffffffffffffffffff8203610ead57610eac610e44565b5b600182019050919050565b7f496e76616c69642073656e6465720000000000000000000000000000000000005f82015250565b5f610eec600e83610a7a565b9150610ef782610eb8565b602082019050919050565b5f6020820190508181035f830152610f1981610ee0565b9050919050565b5f610f2a82610826565b9150610f3583610826565b9250828201905080821115610f4d57610f4c610e44565b5b92915050565b7f4e487b71000000000000000000000000000000000000000000000000000000005f52602260045260245ffd5b5f6002820490506001821680610f9757607f821691505b602082108103610faa57610fa9610f53565b5b50919050565b5f819050815f5260205f209050919050565b5f6020601f8301049050919050565b5f82821b905092915050565b5f6008830261100c7fffffffffffffffffffffffffffffffffffffffffffffffffffffffffffffffff82610fd1565b6110168683610fd1565b95508019841693508086168417925050509392505050565b5f819050919050565b5f61105161104c61104784610826565b61102e565b610826565b9050919050565b5f819050919050565b61106a83611037565b61107e61107682611058565b848454610fdd565b825550505050565b5f5f905090565b611095611086565b6110a0818484611061565b505050565b5b818110156110c3576110b85f8261108d565b6001810190506110a6565b5050565b601f821115611108576110d981610fb0565b6110e284610fc2565b810160208510156110f1578190505b6111056110fd85610fc2565b8301826110a5565b50505b505050565b5f82821c905092915050565b5f6111285f198460080261110d565b1980831691505092915050565b5f6111408383611119565b9150826002028217905092915050565b61115982610a70565b67ffffffffffffffff811115611172576111716108c4565b5b61117c8254610f80565b6111878282856110c7565b5f60209050601f8311600181146111b8575f84156111a6578287015190505b6111b08582611135565b865550611217565b601f1984166111c686610fb0565b5f5b828110156111ed578489015182556001820191506020850194506020810190506111c8565b8683101561120a5784890151611206601f891682611119565b8355505b6001600288020188555050505b50505050505056fea2646970667358221220e155029f582f1b56a24e6f329ad57392c02e1b4e5eb2d2d34e51596af69404f764736f6c634300081f0033",
					"opcodes": "PUSH1 0x80 PUSH1 0x40 MSTORE PUSH0 PUSH1 0x1 SSTORE CALLVALUE DUP1 ISZERO PUSH1 0x12 JUMPI PUSH0 PUSH0 REVERT JUMPDEST POP CALLER PUSH0 PUSH0 PUSH2 0x100 EXP DUP2 SLOAD DUP2 PUSH20 0xFFFFFFFFFFFFFFFFFFFFFFFFFFFFFFFFFFFFFFFF MUL NOT AND SWAP1 DUP4 PUSH20 0xFFFFFFFFFFFFFFFFFFFFFFFFFFFFFFFFFFFFFFFF AND MUL OR SWAP1 SSTORE POP PUSH2 0x1255 DUP1 PUSH2 0x5F PUSH0 CODECOPY PUSH0 RETURN INVALID PUSH1 0x80 PUSH1 0x40 MSTORE CALLVALUE DUP1 ISZERO PUSH2 0xF JUMPI PUSH0 PUSH0 REVERT JUMPDEST POP PUSH1 0x4 CALLDATASIZE LT PUSH2 0x60 JUMPI PUSH0 CALLDATALOAD PUSH1 0xE0 SHR DUP1 PUSH4 0x383BADC EQ PUSH2 0x64 JUMPI DUP1 PUSH4 0x1C7BEC9D EQ PUSH2 0x80 JUMPI DUP1 PUSH4 0x55F9B1EC EQ PUSH2 0x9E JUMPI DUP1 PUSH4 0xA598D03C EQ PUSH2 0xBA JUMPI DUP1 PUSH4 0xD23254B4 EQ PUSH2 0xEE JUMPI DUP1 PUSH4 0xF1156CDF EQ PUSH2 0x11F JUMPI JUMPDEST PUSH0 PUSH0 REVERT JUMPDEST PUSH2 0x7E PUSH1 0x4 DUP1 CALLDATASIZE SUB DUP2 ADD SWAP1 PUSH2 0x79 SWAP2 SWAP1 PUSH2 0x859 JUMP JUMPDEST PUSH2 0x13D JUMP JUMPDEST STOP JUMPDEST PUSH2 0x88 PUSH2 0x39B JUMP JUMPDEST PUSH1 0x40 MLOAD PUSH2 0x95 SWAP2 SWAP1 PUSH2 0x893 JUMP JUMPDEST PUSH1 0x40 MLOAD DUP1 SWAP2 SUB SWAP1 RETURN JUMPDEST PUSH2 0xB8 PUSH1 0x4 DUP1 CALLDATASIZE SUB DUP2 ADD SWAP1 PUSH2 0xB3 SWAP2 SWAP1 PUSH2 0x9E8 JUMP JUMPDEST PUSH2 0x3A1 JUMP JUMPDEST STOP JUMPDEST PUSH2 0xD4 PUSH1 0x4 DUP1 CALLDATASIZE SUB DUP2 ADD SWAP1 PUSH2 0xCF SWAP2 SWAP1 PUSH2 0x859 JUMP JUMPDEST PUSH2 0x4FA JUMP JUMPDEST PUSH1 0x40 MLOAD PUSH2 0xE5 SWAP6 SWAP5 SWAP4 SWAP3 SWAP2 SWAP1 PUSH2 0xAD0 JUMP JUMPDEST PUSH1 0x40 MLOAD DUP1 SWAP2 SUB SWAP1 RETURN JUMPDEST PUSH2 0x108 PUSH1 0x4 DUP1 CALLDATASIZE SUB DUP2 ADD SWAP1 PUSH2 0x103 SWAP2 SWAP1 PUSH2 0xB89 JUMP JUMPDEST PUSH2 0x647 JUMP JUMPDEST PUSH1 0x40 MLOAD PUSH2 0x116 SWAP3 SWAP2 SWAP1 PUSH2 0xBC7 JUMP JUMPDEST PUSH1 0x40 MLOAD DUP1 SWAP2 SUB SWAP1 RETURN JUMPDEST PUSH2 0x127 PUSH2 0x672 JUMP JUMPDEST PUSH1 0x40 MLOAD PUSH2 0x134 SWAP2 SWAP1 PUSH2 0xCBF JUMP JUMPDEST PUSH1 0x40 MLOAD DUP1 SWAP2 SUB SWAP1 RETURN JUMPDEST PUSH1 0x1 DUP2 EQ DUP1 PUSH2 0x14C JUMPI POP PUSH1 0x2 DUP2 EQ JUMPDEST PUSH2 0x18B JUMPI PUSH1 0x40 MLOAD PUSH32 0x8C379A000000000000000000000000000000000000000000000000000000000 DUP2 MSTORE PUSH1 0x4 ADD PUSH2 0x182 SWAP1 PUSH2 0xD29 JUMP JUMPDEST PUSH1 0x40 MLOAD DUP1 SWAP2 SUB SWAP1 REVERT JUMPDEST TIMESTAMP PUSH2 0x194 PUSH2 0x672 JUMP JUMPDEST PUSH1 0x80 ADD MLOAD GT PUSH2 0x1D8 JUMPI PUSH1 0x40 MLOAD PUSH32 0x8C379A000000000000000000000000000000000000000000000000000000000 DUP2 MSTORE PUSH1 0x4 ADD PUSH2 0x1CF SWAP1 PUSH2 0xD91 JUMP JUMPDEST PUSH1 0x40 MLOAD DUP1 SWAP2 SUB SWAP1 REVERT JUMPDEST PUSH0 PUSH1 0x3 PUSH0 PUSH1 0x1 SLOAD DUP2 MSTORE PUSH1 0x20 ADD SWAP1 DUP2 MSTORE PUSH1 0x20 ADD PUSH0 KECCAK256 PUSH0 CALLER PUSH20 0xFFFFFFFFFFFFFFFFFFFFFFFFFFFFFFFFFFFFFFFF AND PUSH20 0xFFFFFFFFFFFFFFFFFFFFFFFFFFFFFFFFFFFFFFFF AND DUP2 MSTORE PUSH1 0x20 ADD SWAP1 DUP2 MSTORE PUSH1 0x20 ADD PUSH0 KECCAK256 PUSH1 0x1 ADD SLOAD EQ PUSH2 0x26B JUMPI PUSH1 0x40 MLOAD PUSH32 0x8C379A000000000000000000000000000000000000000000000000000000000 DUP2 MSTORE PUSH1 0x4 ADD PUSH2 0x262 SWAP1 PUSH2 0xDF9 JUMP JUMPDEST PUSH1 0x40 MLOAD DUP1 SWAP2 SUB SWAP1 REVERT JUMPDEST DUP1 PUSH1 0x3 PUSH0 PUSH1 0x1 SLOAD DUP2 MSTORE PUSH1 0x20 ADD SWAP1 DUP2 MSTORE PUSH1 0x20 ADD PUSH0 KECCAK256 PUSH0 CALLER PUSH20 0xFFFFFFFFFFFFFFFFFFFFFFFFFFFFFFFFFFFFFFFF AND PUSH20 0xFFFFFFFFFFFFFFFFFFFFFFFFFFFFFFFFFFFFFFFF AND DUP2 MSTORE PUSH1 0x20 ADD SWAP1 DUP2 MSTORE PUSH1 0x20 ADD PUSH0 KECCAK256 PUSH0 ADD DUP2 SWAP1 SSTORE POP TIMESTAMP PUSH1 0x3 PUSH0 PUSH1 0x1 SLOAD DUP2 MSTORE PUSH1 0x20 ADD SWAP1 DUP2 MSTORE PUSH1 0x20 ADD PUSH0 KECCAK256 PUSH0 CALLER PUSH20 0xFFFFFFFFFFFFFFFFFFFFFFFFFFFFFFFFFFFFFFFF AND PUSH20 0xFFFFFFFFFFFFFFFFFFFFFFFFFFFFFFFFFFFFFFFF AND DUP2 MSTORE PUSH1 0x20 ADD SWAP1 DUP2 MSTORE PUSH1 0x20 ADD PUSH0 KECCAK256 PUSH1 0x1 ADD DUP2 SWAP1 SSTORE POP PUSH1 0x1 DUP2 SUB PUSH2 0x35D JUMPI PUSH1 0x2 PUSH1 0x1 SLOAD DUP2 SLOAD DUP2 LT PUSH2 0x334 JUMPI PUSH2 0x333 PUSH2 0xE17 JUMP JUMPDEST JUMPDEST SWAP1 PUSH0 MSTORE PUSH1 0x20 PUSH0 KECCAK256 SWAP1 PUSH1 0x5 MUL ADD PUSH1 0x1 ADD PUSH0 DUP2 SLOAD DUP1 SWAP3 SWAP2 SWAP1 PUSH2 0x353 SWAP1 PUSH2 0xE71 JUMP JUMPDEST SWAP2 SWAP1 POP SSTORE POP PUSH2 0x398 JUMP JUMPDEST PUSH1 0x2 PUSH1 0x1 SLOAD DUP2 SLOAD DUP2 LT PUSH2 0x373 JUMPI PUSH2 0x372 PUSH2 0xE17 JUMP JUMPDEST JUMPDEST SWAP1 PUSH0 MSTORE PUSH1 0x20 PUSH0 KECCAK256 SWAP1 PUSH1 0x5 MUL ADD PUSH1 0x3 ADD PUSH0 DUP2 SLOAD DUP1 SWAP3 SWAP2 SWAP1 PUSH2 0x392 SWAP1 PUSH2 0xE71 JUMP JUMPDEST SWAP2 SWAP1 POP SSTORE POP JUMPDEST POP JUMP JUMPDEST PUSH1 0x1 SLOAD DUP2 JUMP JUMPDEST PUSH0 PUSH0 SWAP1 SLOAD SWAP1 PUSH2 0x100 EXP SWAP1 DIV PUSH20 0xFFFFFFFFFFFFFFFFFFFFFFFFFFFFFFFFFFFFFFFF AND PUSH20 0xFFFFFFFFFFFFFFFFFFFFFFFFFFFFFFFFFFFFFFFF AND CALLER PUSH20 0xFFFFFFFFFFFFFFFFFFFFFFFFFFFFFFFFFFFFFFFF AND EQ PUSH2 0x42F JUMPI PUSH1 0x40 MLOAD PUSH32 0x8C379A000000000000000000000000000000000000000000000000000000000 DUP2 MSTORE PUSH1 0x4 ADD PUSH2 0x426 SWAP1 PUSH2 0xF02 JUMP JUMPDEST PUSH1 0x40 MLOAD DUP1 SWAP2 SUB SWAP1 REVERT JUMPDEST PUSH0 PUSH1 0x2 DUP1 SLOAD SWAP1 POP EQ PUSH2 0x453 JUMPI PUSH1 0x1 PUSH0 DUP2 SLOAD DUP1 SWAP3 SWAP2 SWAP1 PUSH2 0x44D SWAP1 PUSH2 0xE71 JUMP JUMPDEST SWAP2 SWAP1 POP SSTORE POP JUMPDEST PUSH2 0x45B PUSH2 0x7E9 JUMP JUMPDEST DUP4 DUP2 PUSH0 ADD DUP2 SWAP1 MSTORE POP DUP3 DUP2 PUSH1 0x40 ADD DUP2 SWAP1 MSTORE POP TIMESTAMP DUP3 PUSH2 0x478 SWAP2 SWAP1 PUSH2 0xF20 JUMP JUMPDEST DUP2 PUSH1 0x80 ADD DUP2 DUP2 MSTORE POP POP PUSH1 0x2 DUP2 SWAP1 DUP1 PUSH1 0x1 DUP2 SLOAD ADD DUP1 DUP3 SSTORE DUP1 SWAP2 POP POP PUSH1 0x1 SWAP1 SUB SWAP1 PUSH0 MSTORE PUSH1 0x20 PUSH0 KECCAK256 SWAP1 PUSH1 0x5 MUL ADD PUSH0 SWAP1 SWAP2 SWAP1 SWAP2 SWAP1 SWAP2 POP PUSH0 DUP3 ADD MLOAD DUP2 PUSH0 ADD SWAP1 DUP2 PUSH2 0x4BD SWAP2 SWAP1 PUSH2 0x1150 JUMP JUMPDEST POP PUSH1 0x20 DUP3 ADD MLOAD DUP2 PUSH1 0x1 ADD SSTORE PUSH1 0x40 DUP3 ADD MLOAD DUP2 PUSH1 0x2 ADD SWAP1 DUP2 PUSH2 0x4DD SWAP2 SWAP1 PUSH2 0x1150 JUMP JUMPDEST POP PUSH1 0x60 DUP3 ADD MLOAD DUP2 PUSH1 0x3 ADD SSTORE PUSH1 0x80 DUP3 ADD MLOAD DUP2 PUSH1 0x4 ADD SSTORE POP POP POP POP POP POP JUMP JUMPDEST PUSH1 0x2 DUP2 DUP2 SLOAD DUP2 LT PUSH2 0x509 JUMPI PUSH0 DUP1 REVERT JUMPDEST SWAP1 PUSH0 MSTORE PUSH1 0x20 PUSH0 KECCAK256 SWAP1 PUSH1 0x5 MUL ADD PUSH0 SWAP2 POP SWAP1 POP DUP1 PUSH0 ADD DUP1 SLOAD PUSH2 0x528 SWAP1 PUSH2 0xF80 JUMP JUMPDEST DUP1 PUSH1 0x1F ADD PUSH1 0x20 DUP1 SWAP2 DIV MUL PUSH1 0x20 ADD PUSH1 0x40 MLOAD SWAP1 DUP2 ADD PUSH1 0x40 MSTORE DUP1 SWAP3 SWAP2 SWAP1 DUP2 DUP2 MSTORE PUSH1 0x20 ADD DUP3 DUP1 SLOAD PUSH2 0x554 SWAP1 PUSH2 0xF80 JUMP JUMPDEST DUP1 ISZERO PUSH2 0x59F JUMPI DUP1 PUSH1 0x1F LT PUSH2 0x576 JUMPI PUSH2 0x100 DUP1 DUP4 SLOAD DIV MUL DUP4 MSTORE SWAP2 PUSH1 0x20 ADD SWAP2 PUSH2 0x59F JUMP JUMPDEST DUP3 ADD SWAP2 SWAP1 PUSH0 MSTORE PUSH1 0x20 PUSH0 KECCAK256 SWAP1 JUMPDEST DUP2 SLOAD DUP2 MSTORE SWAP1 PUSH1 0x1 ADD SWAP1 PUSH1 0x20 ADD DUP1 DUP4 GT PUSH2 0x582 JUMPI DUP3 SWAP1 SUB PUSH1 0x1F AND DUP3 ADD SWAP2 JUMPDEST POP POP POP POP POP SWAP1 DUP1 PUSH1 0x1 ADD SLOAD SWAP1 DUP1 PUSH1 0x2 ADD DUP1 SLOAD PUSH2 0x5BA SWAP1 PUSH2 0xF80 JUMP JUMPDEST DUP1 PUSH1 0x1F ADD PUSH1 0x20 DUP1 SWAP2 DIV MUL PUSH1 0x20 ADD PUSH1 0x40 MLOAD SWAP1 DUP2 ADD PUSH1 0x40 MSTORE DUP1 SWAP3 SWAP2 SWAP1 DUP2 DUP2 MSTORE PUSH1 0x20 ADD DUP3 DUP1 SLOAD PUSH2 0x5E6 SWAP1 PUSH2 0xF80 JUMP JUMPDEST DUP1 ISZERO PUSH2 0x631 JUMPI DUP1 PUSH1 0x1F LT PUSH2 0x608 JUMPI PUSH2 0x100 DUP1 DUP4 SLOAD DIV MUL DUP4 MSTORE SWAP2 PUSH1 0x20 ADD SWAP2 PUSH2 0x631 JUMP JUMPDEST DUP3 ADD SWAP2 SWAP1 PUSH0 MSTORE PUSH1 0x20 PUSH0 KECCAK256 SWAP1 JUMPDEST DUP2 SLOAD DUP2 MSTORE SWAP1 PUSH1 0x1 ADD SWAP1 PUSH1 0x20 ADD DUP1 DUP4 GT PUSH2 0x614 JUMPI DUP3 SWAP1 SUB PUSH1 0x1F AND DUP3 ADD SWAP2 JUMPDEST POP POP POP POP POP SWAP1 DUP1 PUSH1 0x3 ADD SLOAD SWAP1 DUP1 PUSH1 0x4 ADD SLOAD SWAP1 POP DUP6 JUMP JUMPDEST PUSH1 0x3 PUSH1 0x20 MSTORE DUP2 PUSH0 MSTORE PUSH1 0x40 PUSH0 KECCAK256 PUSH1 0x20 MSTORE DUP1 PUSH0 MSTORE PUSH1 0x40 PUSH0 KECCAK256 PUSH0 SWAP2 POP SWAP2 POP POP DUP1 PUSH0 ADD SLOAD SWAP1 DUP1 PUSH1 0x1 ADD SLOAD SWAP1 POP DUP3 JUMP JUMPDEST PUSH2 0x67A PUSH2 0x7E9 JUMP JUMPDEST PUSH1 0x2 PUSH1 0x1 SLOAD DUP2 SLOAD DUP2 LT PUSH2 0x690 JUMPI PUSH2 0x68F PUSH2 0xE17 JUMP JUMPDEST JUMPDEST SWAP1 PUSH0 MSTORE PUSH1 0x20 PUSH0 KECCAK256 SWAP1 PUSH1 0x5 MUL ADD PUSH1 0x40 MLOAD DUP1 PUSH1 0xA0 ADD PUSH1 0x40 MSTORE SWAP1 DUP2 PUSH0 DUP3 ADD DUP1 SLOAD PUSH2 0x6B6 SWAP1 PUSH2 0xF80 JUMP JUMPDEST DUP1 PUSH1 0x1F ADD PUSH1 0x20 DUP1 SWAP2 DIV MUL PUSH1 0x20 ADD PUSH1 0x40 MLOAD SWAP1 DUP2 ADD PUSH1 0x40 MSTORE DUP1 SWAP3 SWAP2 SWAP1 DUP2 DUP2 MSTORE PUSH1 0x20 ADD DUP3 DUP1 SLOAD PUSH2 0x6E2 SWAP1 PUSH2 0xF80 JUMP JUMPDEST DUP1 ISZERO PUSH2 0x72D JUMPI DUP1 PUSH1 0x1F LT PUSH2 0x704 JUMPI PUSH2 0x100 DUP1 DUP4 SLOAD DIV MUL DUP4 MSTORE SWAP2 PUSH1 0x20 ADD SWAP2 PUSH2 0x72D JUMP JUMPDEST DUP3 ADD SWAP2 SWAP1 PUSH0 MSTORE PUSH1 0x20 PUSH0 KECCAK256 SWAP1 JUMPDEST DUP2 SLOAD DUP2 MSTORE SWAP1 PUSH1 0x1 ADD SWAP1 PUSH1 0x20 ADD DUP1 DUP4 GT PUSH2 0x710 JUMPI DUP3 SWAP1 SUB PUSH1 0x1F AND DUP3 ADD SWAP2 JUMPDEST POP POP POP POP POP DUP2 MSTORE PUSH1 0x20 ADD PUSH1 0x1 DUP3 ADD SLOAD DUP2 MSTORE PUSH1 0x20 ADD PUSH1 0x2 DUP3 ADD DUP1 SLOAD PUSH2 0x750 SWAP1 PUSH2 0xF80 JUMP JUMPDEST DUP1 PUSH1 0x1F ADD PUSH1 0x20 DUP1 SWAP2 DIV MUL PUSH1 0x20 ADD PUSH1 0x40 MLOAD SWAP1 DUP2 ADD PUSH1 0x40 MSTORE DUP1 SWAP3 SWAP2 SWAP1 DUP2 DUP2 MSTORE PUSH1 0x20 ADD DUP3 DUP1 SLOAD PUSH2 0x77C SWAP1 PUSH2 0xF80 JUMP JUMPDEST DUP1 ISZERO PUSH2 0x7C7 JUMPI DUP1 PUSH1 0x1F LT PUSH2 0x79E JUMPI PUSH2 0x100 DUP1 DUP4 SLOAD DIV MUL DUP4 MSTORE SWAP2 PUSH1 0x20 ADD SWAP2 PUSH2 0x7C7 JUMP JUMPDEST DUP3 ADD SWAP2 SWAP1 PUSH0 MSTORE PUSH1 0x20 PUSH0 KECCAK256 SWAP1 JUMPDEST DUP2 SLOAD DUP2 MSTORE SWAP1 PUSH1 0x1 ADD SWAP1 PUSH1 0x20 ADD DUP1 DUP4 GT PUSH2 0x7AA JUMPI DUP3 SWAP1 SUB PUSH1 0x1F AND DUP3 ADD SWAP2 JUMPDEST POP POP POP POP POP DUP2 MSTORE PUSH1 0x20 ADD PUSH1 0x3 DUP3 ADD SLOAD DUP2 MSTORE PUSH1 0x20 ADD PUSH1 0x4 DUP3 ADD SLOAD DUP2 MSTORE POP POP SWAP1 POP SWAP1 JUMP JUMPDEST PUSH1 0x40 MLOAD DUP1 PUSH1 0xA0 ADD PUSH1 0x40 MSTORE DUP1 PUSH1 0x60 DUP2 MSTORE PUSH1 0x20 ADD PUSH0 DUP2 MSTORE PUSH1 0x20 ADD PUSH1 0x60 DUP2 MSTORE PUSH1 0x20 ADD PUSH0 DUP2 MSTORE PUSH1 0x20 ADD PUSH0 DUP2 MSTORE POP SWAP1 JUMP JUMPDEST PUSH0 PUSH1 0x40 MLOAD SWAP1 POP SWAP1 JUMP JUMPDEST PUSH0 PUSH0 REVERT JUMPDEST PUSH0 PUSH0 REVERT JUMPDEST PUSH0 DUP2 SWAP1 POP SWAP2 SWAP1 POP JUMP JUMPDEST PUSH2 0x838 DUP2 PUSH2 0x826 JUMP JUMPDEST DUP2 EQ PUSH2 0x842 JUMPI PUSH0 PUSH0 REVERT JUMPDEST POP JUMP JUMPDEST PUSH0 DUP2 CALLDATALOAD SWAP1 POP PUSH2 0x853 DUP2 PUSH2 0x82F JUMP JUMPDEST SWAP3 SWAP2 POP POP JUMP JUMPDEST PUSH0 PUSH1 0x20 DUP3 DUP5 SUB SLT ISZERO PUSH2 0x86E JUMPI PUSH2 0x86D PUSH2 0x81E JUMP JUMPDEST JUMPDEST PUSH0 PUSH2 0x87B DUP5 DUP3 DUP6 ADD PUSH2 0x845 JUMP JUMPDEST SWAP2 POP POP SWAP3 SWAP2 POP POP JUMP JUMPDEST PUSH2 0x88D DUP2 PUSH2 0x826 JUMP JUMPDEST DUP3 MSTORE POP POP JUMP JUMPDEST PUSH0 PUSH1 0x20 DUP3 ADD SWAP1 POP PUSH2 0x8A6 PUSH0 DUP4 ADD DUP5 PUSH2 0x884 JUMP JUMPDEST SWAP3 SWAP2 POP POP JUMP JUMPDEST PUSH0 PUSH0 REVERT JUMPDEST PUSH0 PUSH0 REVERT JUMPDEST PUSH0 PUSH1 0x1F NOT PUSH1 0x1F DUP4 ADD AND SWAP1 POP SWAP2 SWAP1 POP JUMP JUMPDEST PUSH32 0x4E487B7100000000000000000000000000000000000000000000000000000000 PUSH0 MSTORE PUSH1 0x41 PUSH1 0x4 MSTORE PUSH1 0x24 PUSH0 REVERT JUMPDEST PUSH2 0x8FA DUP3 PUSH2 0x8B4 JUMP JUMPDEST DUP2 ADD DUP2 DUP2 LT PUSH8 0xFFFFFFFFFFFFFFFF DUP3 GT OR ISZERO PUSH2 0x919 JUMPI PUSH2 0x918 PUSH2 0x8C4 JUMP JUMPDEST JUMPDEST DUP1 PUSH1 0x40 MSTORE POP POP POP JUMP JUMPDEST PUSH0 PUSH2 0x92B PUSH2 0x815 JUMP JUMPDEST SWAP1 POP PUSH2 0x937 DUP3 DUP3 PUSH2 0x8F1 JUMP JUMPDEST SWAP2 SWAP1 POP JUMP JUMPDEST PUSH0 PUSH8 0xFFFFFFFFFFFFFFFF DUP3 GT ISZERO PUSH2 0x956 JUMPI PUSH2 0x955 PUSH2 0x8C4 JUMP JUMPDEST JUMPDEST PUSH2 0x95F DUP3 PUSH2 0x8B4 JUMP JUMPDEST SWAP1 POP PUSH1 0x20 DUP2 ADD SWAP1 POP SWAP2 SWAP1 POP JUMP JUMPDEST DUP3 DUP2 DUP4 CALLDATACOPY PUSH0 DUP4 DUP4 ADD MSTORE POP POP POP JUMP JUMPDEST PUSH0 PUSH2 0x98C PUSH2 0x987 DUP5 PUSH2 0x93C JUMP JUMPDEST PUSH2 0x922 JUMP JUMPDEST SWAP1 POP DUP3 DUP2 MSTORE PUSH1 0x20 DUP2 ADD DUP5 DUP5 DUP5 ADD GT ISZERO PUSH2 0x9A8 JUMPI PUSH2 0x9A7 PUSH2 0x8B0 JUMP JUMPDEST JUMPDEST PUSH2 0x9B3 DUP5 DUP3 DUP6 PUSH2 0x96C JUMP JUMPDEST POP SWAP4 SWAP3 POP POP POP JUMP JUMPDEST PUSH0 DUP3 PUSH1 0x1F DUP4 ADD SLT PUSH2 0x9CF JUMPI PUSH2 0x9CE PUSH2 0x8AC JUMP JUMPDEST JUMPDEST DUP2 CALLDATALOAD PUSH2 0x9DF DUP5 DUP3 PUSH1 0x20 DUP7 ADD PUSH2 0x97A JUMP JUMPDEST SWAP2 POP POP SWAP3 SWAP2 POP POP JUMP JUMPDEST PUSH0 PUSH0 PUSH0 PUSH1 0x60 DUP5 DUP7 SUB SLT ISZERO PUSH2 0x9FF JUMPI PUSH2 0x9FE PUSH2 0x81E JUMP JUMPDEST JUMPDEST PUSH0 DUP5 ADD CALLDATALOAD PUSH8 0xFFFFFFFFFFFFFFFF DUP2 GT ISZERO PUSH2 0xA1C JUMPI PUSH2 0xA1B PUSH2 0x822 JUMP JUMPDEST JUMPDEST PUSH2 0xA28 DUP7 DUP3 DUP8 ADD PUSH2 0x9BB JUMP JUMPDEST SWAP4 POP POP PUSH1 0x20 DUP5 ADD CALLDATALOAD PUSH8 0xFFFFFFFFFFFFFFFF DUP2 GT ISZERO PUSH2 0xA49 JUMPI PUSH2 0xA48 PUSH2 0x822 JUMP JUMPDEST JUMPDEST PUSH2 0xA55 DUP7 DUP3 DUP8 ADD PUSH2 0x9BB JUMP JUMPDEST SWAP3 POP POP PUSH1 0x40 PUSH2 0xA66 DUP7 DUP3 DUP8 ADD PUSH2 0x845 JUMP JUMPDEST SWAP2 POP POP SWAP3 POP SWAP3 POP SWAP3 JUMP JUMPDEST PUSH0 DUP2 MLOAD SWAP1 POP SWAP2 SWAP1 POP JUMP JUMPDEST PUSH0 DUP3 DUP3 MSTORE PUSH1 0x20 DUP3 ADD SWAP1 POP SWAP3 SWAP2 POP POP JUMP JUMPDEST DUP3 DUP2 DUP4 MCOPY PUSH0 DUP4 DUP4 ADD MSTORE POP POP POP JUMP JUMPDEST PUSH0 PUSH2 0xAA2 DUP3 PUSH2 0xA70 JUMP JUMPDEST PUSH2 0xAAC DUP2 DUP6 PUSH2 0xA7A JUMP JUMPDEST SWAP4 POP PUSH2 0xABC DUP2 DUP6 PUSH1 0x20 DUP7 ADD PUSH2 0xA8A JUMP JUMPDEST PUSH2 0xAC5 DUP2 PUSH2 0x8B4 JUMP JUMPDEST DUP5 ADD SWAP2 POP POP SWAP3 SWAP2 POP POP JUMP JUMPDEST PUSH0 PUSH1 0xA0 DUP3 ADD SWAP1 POP DUP2 DUP2 SUB PUSH0 DUP4 ADD MSTORE PUSH2 0xAE8 DUP2 DUP9 PUSH2 0xA98 JUMP JUMPDEST SWAP1 POP PUSH2 0xAF7 PUSH1 0x20 DUP4 ADD DUP8 PUSH2 0x884 JUMP JUMPDEST DUP2 DUP2 SUB PUSH1 0x40 DUP4 ADD MSTORE PUSH2 0xB09 DUP2 DUP7 PUSH2 0xA98 JUMP JUMPDEST SWAP1 POP PUSH2 0xB18 PUSH1 0x60 DUP4 ADD DUP6 PUSH2 0x884 JUMP JUMPDEST PUSH2 0xB25 PUSH1 0x80 DUP4 ADD DUP5 PUSH2 0x884 JUMP JUMPDEST SWAP7 SWAP6 POP POP POP POP POP POP JUMP JUMPDEST PUSH0 PUSH20 0xFFFFFFFFFFFFFFFFFFFFFFFFFFFFFFFFFFFFFFFF DUP3 AND SWAP1 POP SWAP2 SWAP1 POP JUMP JUMPDEST PUSH0 PUSH2 0xB58 DUP3 PUSH2 0xB2F JUMP JUMPDEST SWAP1 POP SWAP2 SWAP1 POP JUMP JUMPDEST PUSH2 0xB68 DUP2 PUSH2 0xB4E JUMP JUMPDEST DUP2 EQ PUSH2 0xB72 JUMPI PUSH0 PUSH0 REVERT JUMPDEST POP JUMP JUMPDEST PUSH0 DUP2 CALLDATALOAD SWAP1 POP PUSH2 0xB83 DUP2 PUSH2 0xB5F JUMP JUMPDEST SWAP3 SWAP2 POP POP JUMP JUMPDEST PUSH0 PUSH0 PUSH1 0x40 DUP4 DUP6 SUB SLT ISZERO PUSH2 0xB9F JUMPI PUSH2 0xB9E PUSH2 0x81E JUMP JUMPDEST JUMPDEST PUSH0 PUSH2 0xBAC DUP6 DUP3 DUP7 ADD PUSH2 0x845 JUMP JUMPDEST SWAP3 POP POP PUSH1 0x20 PUSH2 0xBBD DUP6 DUP3 DUP7 ADD PUSH2 0xB75 JUMP JUMPDEST SWAP2 POP POP SWAP3 POP SWAP3 SWAP1 POP JUMP JUMPDEST PUSH0 PUSH1 0x40 DUP3 ADD SWAP1 POP PUSH2 0xBDA PUSH0 DUP4 ADD DUP6 PUSH2 0x884 JUMP JUMPDEST PUSH2 0xBE7 PUSH1 0x20 DUP4 ADD DUP5 PUSH2 0x884 JUMP JUMPDEST SWAP4 SWAP3 POP POP POP JUMP JUMPDEST PUSH0 DUP3 DUP3 MSTORE PUSH1 0x20 DUP3 ADD SWAP1 POP SWAP3 SWAP2 POP POP JUMP JUMPDEST PUSH0 PUSH2 0xC08 DUP3 PUSH2 0xA70 JUMP JUMPDEST PUSH2 0xC12 DUP2 DUP6 PUSH2 0xBEE JUMP JUMPDEST SWAP4 POP PUSH2 0xC22 DUP2 DUP6 PUSH1 0x20 DUP7 ADD PUSH2 0xA8A JUMP JUMPDEST PUSH2 0xC2B DUP2 PUSH2 0x8B4 JUMP JUMPDEST DUP5 ADD SWAP2 POP POP SWAP3 SWAP2 POP POP JUMP JUMPDEST PUSH2 0xC3F DUP2 PUSH2 0x826 JUMP JUMPDEST DUP3 MSTORE POP POP JUMP JUMPDEST PUSH0 PUSH1 0xA0 DUP4 ADD PUSH0 DUP4 ADD MLOAD DUP5 DUP3 SUB PUSH0 DUP7 ADD MSTORE PUSH2 0xC5F DUP3 DUP3 PUSH2 0xBFE JUMP JUMPDEST SWAP2 POP POP PUSH1 0x20 DUP4 ADD MLOAD PUSH2 0xC74 PUSH1 0x20 DUP7 ADD DUP3 PUSH2 0xC36 JUMP JUMPDEST POP PUSH1 0x40 DUP4 ADD MLOAD DUP5 DUP3 SUB PUSH1 0x40 DUP7 ADD MSTORE PUSH2 0xC8C DUP3 DUP3 PUSH2 0xBFE JUMP JUMPDEST SWAP2 POP POP PUSH1 0x60 DUP4 ADD MLOAD PUSH2 0xCA1 PUSH1 0x60 DUP7 ADD DUP3 PUSH2 0xC36 JUMP JUMPDEST POP PUSH1 0x80 DUP4 ADD MLOAD PUSH2 0xCB4 PUSH1 0x80 DUP7 ADD DUP3 PUSH2 0xC36 JUMP JUMPDEST POP DUP1 SWAP2 POP POP SWAP3 SWAP2 POP POP JUMP JUMPDEST PUSH0 PUSH1 0x20 DUP3 ADD SWAP1 POP DUP2 DUP2 SUB PUSH0 DUP4 ADD MSTORE PUSH2 0xCD7 DUP2 DUP5 PUSH2 0xC45 JUMP JUMPDEST SWAP1 POP SWAP3 SWAP2 POP POP JUMP JUMPDEST PUSH32 0x496E76616C69642063686F696365000000000000000000000000000000000000 PUSH0 DUP3 ADD MSTORE POP JUMP JUMPDEST PUSH0 PUSH2 0xD13 PUSH1 0xE DUP4 PUSH2 0xA7A JUMP JUMPDEST SWAP2 POP PUSH2 0xD1E DUP3 PUSH2 0xCDF JUMP JUMPDEST PUSH1 0x20 DUP3 ADD SWAP1 POP SWAP2 SWAP1 POP JUMP JUMPDEST PUSH0 PUSH1 0x20 DUP3 ADD SWAP1 POP DUP2 DUP2 SUB PUSH0 DUP4 ADD MSTORE PUSH2 0xD40 DUP2 PUSH2 0xD07 JUMP JUMPDEST SWAP1 POP SWAP2 SWAP1 POP JUMP JUMPDEST PUSH32 0x4E6F206F70656E20766F74696E67000000000000000000000000000000000000 PUSH0 DUP3 ADD MSTORE POP JUMP JUMPDEST PUSH0 PUSH2 0xD7B PUSH1 0xE DUP4 PUSH2 0xA7A JUMP JUMPDEST SWAP2 POP PUSH2 0xD86 DUP3 PUSH2 0xD47 JUMP JUMPDEST PUSH1 0x20 DUP3 ADD SWAP1 POP SWAP2 SWAP1 POP JUMP JUMPDEST PUSH0 PUSH1 0x20 DUP3 ADD SWAP1 POP DUP2 DUP2 SUB PUSH0 DUP4 ADD MSTORE PUSH2 0xDA8 DUP2 PUSH2 0xD6F JUMP JUMPDEST SWAP1 POP SWAP2 SWAP1 POP JUMP JUMPDEST PUSH32 0x596F7520616C726561647920766F746564206F6E207468697320766F74696E67 PUSH0 DUP3 ADD MSTORE POP JUMP JUMPDEST PUSH0 PUSH2 0xDE3 PUSH1 0x20 DUP4 PUSH2 0xA7A JUMP JUMPDEST SWAP2 POP PUSH2 0xDEE DUP3 PUSH2 0xDAF JUMP JUMPDEST PUSH1 0x20 DUP3 ADD SWAP1 POP SWAP2 SWAP1 POP JUMP JUMPDEST PUSH0 PUSH1 0x20 DUP3 ADD SWAP1 POP DUP2 DUP2 SUB PUSH0 DUP4 ADD MSTORE PUSH2 0xE10 DUP2 PUSH2 0xDD7 JUMP JUMPDEST SWAP1 POP SWAP2 SWAP1 POP JUMP JUMPDEST PUSH32 0x4E487B7100000000000000000000000000000000000000000000000000000000 PUSH0 MSTORE PUSH1 0x32 PUSH1 0x4 MSTORE PUSH1 0x24 PUSH0 REVERT JUMPDEST PUSH32 0x4E487B7100000000000000000000000000000000000000000000000000000000 PUSH0 MSTORE PUSH1 0x11 PUSH1 0x4 MSTORE PUSH1 0x24 PUSH0 REVERT JUMPDEST PUSH0 PUSH2 0xE7B DUP3 PUSH2 0x826 JUMP JUMPDEST SWAP2 POP PUSH32 0xFFFFFFFFFFFFFFFFFFFFFFFFFFFFFFFFFFFFFFFFFFFFFFFFFFFFFFFFFFFFFFFF DUP3 SUB PUSH2 0xEAD JUMPI PUSH2 0xEAC PUSH2 0xE44 JUMP JUMPDEST JUMPDEST PUSH1 0x1 DUP3 ADD SWAP1 POP SWAP2 SWAP1 POP JUMP JUMPDEST PUSH32 0x496E76616C69642073656E646572000000000000000000000000000000000000 PUSH0 DUP3 ADD MSTORE POP JUMP JUMPDEST PUSH0 PUSH2 0xEEC PUSH1 0xE DUP4 PUSH2 0xA7A JUMP JUMPDEST SWAP2 POP PUSH2 0xEF7 DUP3 PUSH2 0xEB8 JUMP JUMPDEST PUSH1 0x20 DUP3 ADD SWAP1 POP SWAP2 SWAP1 POP JUMP JUMPDEST PUSH0 PUSH1 0x20 DUP3 ADD SWAP1 POP DUP2 DUP2 SUB PUSH0 DUP4 ADD MSTORE PUSH2 0xF19 DUP2 PUSH2 0xEE0 JUMP JUMPDEST SWAP1 POP SWAP2 SWAP1 POP JUMP JUMPDEST PUSH0 PUSH2 0xF2A DUP3 PUSH2 0x826 JUMP JUMPDEST SWAP2 POP PUSH2 0xF35 DUP4 PUSH2 0x826 JUMP JUMPDEST SWAP3 POP DUP3 DUP3 ADD SWAP1 POP DUP1 DUP3 GT ISZERO PUSH2 0xF4D JUMPI PUSH2 0xF4C PUSH2 0xE44 JUMP JUMPDEST JUMPDEST SWAP3 SWAP2 POP POP JUMP JUMPDEST PUSH32 0x4E487B7100000000000000000000000000000000000000000000000000000000 PUSH0 MSTORE PUSH1 0x22 PUSH1 0x4 MSTORE PUSH1 0x24 PUSH0 REVERT JUMPDEST PUSH0 PUSH1 0x2 DUP3 DIV SWAP1 POP PUSH1 0x1 DUP3 AND DUP1 PUSH2 0xF97 JUMPI PUSH1 0x7F DUP3 AND SWAP2 POP JUMPDEST PUSH1 0x20 DUP3 LT DUP2 SUB PUSH2 0xFAA JUMPI PUSH2 0xFA9 PUSH2 0xF53 JUMP JUMPDEST JUMPDEST POP SWAP2 SWAP1 POP JUMP JUMPDEST PUSH0 DUP2 SWAP1 POP DUP2 PUSH0 MSTORE PUSH1 0x20 PUSH0 KECCAK256 SWAP1 POP SWAP2 SWAP1 POP JUMP JUMPDEST PUSH0 PUSH1 0x20 PUSH1 0x1F DUP4 ADD DIV SWAP1 POP SWAP2 SWAP1 POP JUMP JUMPDEST PUSH0 DUP3 DUP3 SHL SWAP1 POP SWAP3 SWAP2 POP POP JUMP JUMPDEST PUSH0 PUSH1 0x8 DUP4 MUL PUSH2 0x100C PUSH32 0xFFFFFFFFFFFFFFFFFFFFFFFFFFFFFFFFFFFFFFFFFFFFFFFFFFFFFFFFFFFFFFFF DUP3 PUSH2 0xFD1 JUMP JUMPDEST PUSH2 0x1016 DUP7 DUP4 PUSH2 0xFD1 JUMP JUMPDEST SWAP6 POP DUP1 NOT DUP5 AND SWAP4 POP DUP1 DUP7 AND DUP5 OR SWAP3 POP POP POP SWAP4 SWAP3 POP POP POP JUMP JUMPDEST PUSH0 DUP2 SWAP1 POP SWAP2 SWAP1 POP JUMP JUMPDEST PUSH0 PUSH2 0x1051 PUSH2 0x104C PUSH2 0x1047 DUP5 PUSH2 0x826 JUMP JUMPDEST PUSH2 0x102E JUMP JUMPDEST PUSH2 0x826 JUMP JUMPDEST SWAP1 POP SWAP2 SWAP1 POP JUMP JUMPDEST PUSH0 DUP2 SWAP1 POP SWAP2 SWAP1 POP JUMP JUMPDEST PUSH2 0x106A DUP4 PUSH2 0x1037 JUMP JUMPDEST PUSH2 0x107E PUSH2 0x1076 DUP3 PUSH2 0x1058 JUMP JUMPDEST DUP5 DUP5 SLOAD PUSH2 0xFDD JUMP JUMPDEST DUP3 SSTORE POP POP POP POP JUMP JUMPDEST PUSH0 PUSH0 SWAP1 POP SWAP1 JUMP JUMPDEST PUSH2 0x1095 PUSH2 0x1086 JUMP JUMPDEST PUSH2 0x10A0 DUP2 DUP5 DUP5 PUSH2 0x1061 JUMP JUMPDEST POP POP POP JUMP JUMPDEST JUMPDEST DUP2 DUP2 LT ISZERO PUSH2 0x10C3 JUMPI PUSH2 0x10B8 PUSH0 DUP3 PUSH2 0x108D JUMP JUMPDEST PUSH1 0x1 DUP2 ADD SWAP1 POP PUSH2 0x10A6 JUMP JUMPDEST POP POP JUMP JUMPDEST PUSH1 0x1F DUP3 GT ISZERO PUSH2 0x1108 JUMPI PUSH2 0x10D9 DUP2 PUSH2 0xFB0 JUMP JUMPDEST PUSH2 0x10E2 DUP5 PUSH2 0xFC2 JUMP JUMPDEST DUP2 ADD PUSH1 0x20 DUP6 LT ISZERO PUSH2 0x10F1 JUMPI DUP2 SWAP1 POP JUMPDEST PUSH2 0x1105 PUSH2 0x10FD DUP6 PUSH2 0xFC2 JUMP JUMPDEST DUP4 ADD DUP3 PUSH2 0x10A5 JUMP JUMPDEST POP POP JUMPDEST POP POP POP JUMP JUMPDEST PUSH0 DUP3 DUP3 SHR SWAP1 POP SWAP3 SWAP2 POP POP JUMP JUMPDEST PUSH0 PUSH2 0x1128 PUSH0 NOT DUP5 PUSH1 0x8 MUL PUSH2 0x110D JUMP JUMPDEST NOT DUP1 DUP4 AND SWAP2 POP POP SWAP3 SWAP2 POP POP JUMP JUMPDEST PUSH0 PUSH2 0x1140 DUP4 DUP4 PUSH2 0x1119 JUMP JUMPDEST SWAP2 POP DUP3 PUSH1 0x2 MUL DUP3 OR SWAP1 POP SWAP3 SWAP2 POP POP JUMP JUMPDEST PUSH2 0x1159 DUP3 PUSH2 0xA70 JUMP JUMPDEST PUSH8 0xFFFFFFFFFFFFFFFF DUP2 GT ISZERO PUSH2 0x1172 JUMPI PUSH2 0x1171 PUSH2 0x8C4 JUMP JUMPDEST JUMPDEST PUSH2 0x117C DUP3 SLOAD PUSH2 0xF80 JUMP JUMPDEST PUSH2 0x1187 DUP3 DUP3 DUP6 PUSH2 0x10C7 JUMP JUMPDEST PUSH0 PUSH1 0x20 SWAP1 POP PUSH1 0x1F DUP4 GT PUSH1 0x1 DUP2 EQ PUSH2 0x11B8 JUMPI PUSH0 DUP5 ISZERO PUSH2 0x11A6 JUMPI DUP3 DUP8 ADD MLOAD SWAP1 POP JUMPDEST PUSH2 0x11B0 DUP6 DUP3 PUSH2 0x1135 JUMP JUMPDEST DUP7 SSTORE POP PUSH2 0x1217 JUMP JUMPDEST PUSH1 0x1F NOT DUP5 AND PUSH2 0x11C6 DUP7 PUSH2 0xFB0 JUMP JUMPDEST PUSH0 JUMPDEST DUP3 DUP2 LT ISZERO PUSH2 0x11ED JUMPI DUP5 DUP10 ADD MLOAD DUP3 SSTORE PUSH1 0x1 DUP3 ADD SWAP2 POP PUSH1 0x20 DUP6 ADD SWAP5 POP PUSH1 0x20 DUP2 ADD SWAP1 POP PUSH2 0x11C8 JUMP JUMPDEST DUP7 DUP4 LT ISZERO PUSH2 0x120A JUMPI DUP5 DUP10 ADD MLOAD PUSH2 0x1206 PUSH1 0x1F DUP10 AND DUP3 PUSH2 0x1119 JUMP JUMPDEST DUP4 SSTORE POP JUMPDEST PUSH1 0x1 PUSH1 0x2 DUP9 MUL ADD DUP9 SSTORE POP POP POP JUMPDEST POP POP POP POP POP POP JUMP INVALID LOG2 PUSH5 0x6970667358 0x22 SLT KECCAK256 RJUMPI 0x5502 SWAP16 PC 0x2F SHL JUMP LOG2 0x4E PUSH16 0x329AD57392C02E1B4E5EB2D2D34E5159 PUSH11 0xF69404F764736F6C634300 ADDMOD 0x1F STOP CALLER "
				},
				"gasEstimates": {
					"creation": {
						"codeDepositCost": "938600",
						"executionCost": "30242",
						"totalCost": "968842"
					},
					"external": {
						"addVote(uint256)": "infinite",
						"addVoting(string,string,uint256)": "infinite",
						"currentVoting()": "2425",
						"getCurrentVoting()": "infinite",
						"votes(uint256,address)": "infinite",
						"votings(uint256)": "infinite"
					}
				},
				"methodIdentifiers": {
					"addVote(uint256)": "0383badc",
					"addVoting(string,string,uint256)": "55f9b1ec",
					"currentVoting()": "1c7bec9d",
					"getCurrentVoting()": "f1156cdf",
					"votes(uint256,address)": "d23254b4",
					"votings(uint256)": "a598d03c"
				}
			},
			"storageLayout": {
				"storage": [
					{
						"astId": 19,
						"contract": "contracts/smart-contract/Webb3.sol:Webbb3",
						"label": "owner",
						"offset": 0,
						"slot": "0",
						"type": "t_address"
					},
					{
						"astId": 22,
						"contract": "contracts/smart-contract/Webb3.sol:Webbb3",
						"label": "currentVoting",
						"offset": 0,
						"slot": "1",
						"type": "t_uint256"
					},
					{
						"astId": 26,
						"contract": "contracts/smart-contract/Webb3.sol:Webbb3",
						"label": "votings",
						"offset": 0,
						"slot": "2",
						"type": "t_array(t_struct(Voting)12_storage)dyn_storage"
					},
					{
						"astId": 33,
						"contract": "contracts/smart-contract/Webb3.sol:Webbb3",
						"label": "votes",
						"offset": 0,
						"slot": "3",
						"type": "t_mapping(t_uint256,t_mapping(t_address,t_struct(Vote)17_storage))"
					}
				],
				"types": {
					"t_address": {
						"encoding": "inplace",
						"label": "address",
						"numberOfBytes": "20"
					},
					"t_array(t_struct(Voting)12_storage)dyn_storage": {
						"base": "t_struct(Voting)12_storage",
						"encoding": "dynamic_array",
						"label": "struct Voting[]",
						"numberOfBytes": "32"
					},
					"t_mapping(t_address,t_struct(Vote)17_storage)": {
						"encoding": "mapping",
						"key": "t_address",
						"label": "mapping(address => struct Vote)",
						"numberOfBytes": "32",
						"value": "t_struct(Vote)17_storage"
					},
					"t_mapping(t_uint256,t_mapping(t_address,t_struct(Vote)17_storage))": {
						"encoding": "mapping",
						"key": "t_uint256",
						"label": "mapping(uint256 => mapping(address => struct Vote))",
						"numberOfBytes": "32",
						"value": "t_mapping(t_address,t_struct(Vote)17_storage)"
					},
					"t_string_storage": {
						"encoding": "bytes",
						"label": "string",
						"numberOfBytes": "32"
					},
					"t_struct(Vote)17_storage": {
						"encoding": "inplace",
						"label": "struct Vote",
						"members": [
							{
								"astId": 14,
								"contract": "contracts/smart-contract/Webb3.sol:Webbb3",
								"label": "choice",
								"offset": 0,
								"slot": "0",
								"type": "t_uint256"
							},
							{
								"astId": 16,
								"contract": "contracts/smart-contract/Webb3.sol:Webbb3",
								"label": "date",
								"offset": 0,
								"slot": "1",
								"type": "t_uint256"
							}
						],
						"numberOfBytes": "64"
					},
					"t_struct(Voting)12_storage": {
						"encoding": "inplace",
						"label": "struct Voting",
						"members": [
							{
								"astId": 3,
								"contract": "contracts/smart-contract/Webb3.sol:Webbb3",
								"label": "option1",
								"offset": 0,
								"slot": "0",
								"type": "t_string_storage"
							},
							{
								"astId": 5,
								"contract": "contracts/smart-contract/Webb3.sol:Webbb3",
								"label": "votes1",
								"offset": 0,
								"slot": "1",
								"type": "t_uint256"
							},
							{
								"astId": 7,
								"contract": "contracts/smart-contract/Webb3.sol:Webbb3",
								"label": "option2",
								"offset": 0,
								"slot": "2",
								"type": "t_string_storage"
							},
							{
								"astId": 9,
								"contract": "contracts/smart-contract/Webb3.sol:Webbb3",
								"label": "votes2",
								"offset": 0,
								"slot": "3",
								"type": "t_uint256"
							},
							{
								"astId": 11,
								"contract": "contracts/smart-contract/Webb3.sol:Webbb3",
								"label": "maxDate",
								"offset": 0,
								"slot": "4",
								"type": "t_uint256"
							}
						],
						"numberOfBytes": "160"
					},
					"t_uint256": {
						"encoding": "inplace",
						"label": "uint256",
						"numberOfBytes": "32"
					}
				}
			},
			"userdoc": {
				"kind": "user",
				"methods": {},
				"version": 1
			}
		}
	}
}